:020000040000fa
:080000000001040000000000f3
:020000040000fa
:04000800b40300003d
:020000040000fa
:04000c00b403000039
:020000040000fa
:04001000b403000035
:020000040000fa
:04001400b403000031
:020000040000fa
:04001800b40300002d
:020000040000fa
:04001c00b403000029
:020000040000fa
:04002000b403000025
:020000040000fa
:04002400b403000021
:020000040000fa
:04002800b40300001d
:020000040000fa
:04002c00b403000019
:020000040000fa
:04003000b403000015
:020000040000fa
:0400340010020000b6
:020000040000fa
:04003800b40300000d
:020000040000fa
:04003c00b403000009
:020000040000fa
:04004000b403000005
:020000040000fa
:04004400b403000001
:020000040000fa
:04004800b4030000fd
:020000040000fa
:04004c00b4030000f9
:020000040000fa
:04005000b4030000f5
:020000040000fa
:04005400b4030000f1
:020000040000fa
:04005800b4030000ed
:020000040000fa
:04005c00b4030000e9
:020000040000fa
:04006000b4030000e5
:020000040000fa
:04006400b4030000e1
:020000040000fa
:04006800b4030000dd
:020000040000fa
:04006c00b4030000d9
:020000040000fa
:04007000b4030000d5
:020000040000fa
:04007400b4030000d1
:020000040000fa
:04007800b4030000cd
:020000040000fa
:04007c00b4030000c9
:020000040000fa
:04008000b4030000c5
:020000040000fa
:04008400b4030000c1
:020000040000fa
:04008800b4030000bd
:020000040000fa
:04008c00b4030000b9
:020000040000fa
:04009000b4030000b5
:020000040000fa
:04009400b4030000b1
:020000040000fa
:04009800b4030000ad
:020000040000fa
:04009c00b4030000a9
:020000040000fa
:0400a000b4030000a5
:020000040000fa
:0400a400b4030000a1
:020000040000fa
:0400a800b40300009d
:020000040000fa
:0400ac00b403000099
:020000040000fa
:0400b000b403000095
:020000040000fa
:0400b400b403000091
:020000040000fa
:0400b800b40300008d
:020000040000fa
:0400bc00b403000089
:020000040000fa
:0400c000b403000085
:020000040000fa
:0400c400b403000081
:020000040000fa
:0400c800b40300007d
:020000040000fa
:0400cc00b403000079
:020000040000fa
:0400d000b403000075
:020000040000fa
:0400d400b403000071
:020000040000fa
:0400d800b40300006d
:020000040000fa
:0400dc00b403000069
:020000040000fa
:0400e000b403000065
:020000040000fa
:0400e400b403000061
:020000040000fa
:0400e800b40300005d
:020000040000fa
:0400ec00b403000059
:020000040000fa
:0400f000b403000055
:020000040000fa
:0400f400b403000051
:020000040000fa
:0400f800b40300004d
:020000040000fa
:0400fc00b403000049
:020000040000fa
:04010000b403000044
:020000040000fa
:04010400b403000040
:020000040000fa
:04010800b40300003c
:020000040000fa
:04010c00b403000038
:020000040000fa
:04011000b403000034
:020000040000fa
:04011400b403000030
:020000040000fa
:04011800b40300002c
:020000040000fa
:04011c00b403000028
:020000040000fa
:04012000b403000024
:020000040000fa
:04012400b403000020
:020000040000fa
:04012800b40300001c
:020000040000fa
:04012c00b403000018
:020000040000fa
:04013000b403000014
:020000040000fa
:04013400b403000010
:020000040000fa
:04013800b40300000c
:020000040000fa
:04013c00b403000008
:020000040000fa
:04014000b403000004
:020000040000fa
:04014400b403000000
:020000040000fa
:04014800b4030000fc
:020000040000fa
:04014c00b4030000f8
:020000040000fa
:04015000b4030000f4
:020000040000fa
:04015400b4030000f0
:020000040000fa
:04015800b4030000ec
:020000040000fa
:04015c00b4030000e8
:020000040000fa
:04016000b4030000e4
:020000040000fa
:04016400b4030000e0
:020000040000fa
:04016800b4030000dc
:020000040000fa
:04016c00b4030000d8
:020000040000fa
:04017000b4030000d4
:020000040000fa
:04017400b4030000d0
:020000040000fa
:04017800b4030000cc
:020000040000fa
:04017c00b4030000c8
:020000040000fa
:04018000b4030000c4
:020000040000fa
:04018400b4030000c0
:020000040000fa
:04018800b4030000bc
:020000040000fa
:04018c00b4030000b8
:020000040000fa
:04019000b4030000b4
:020000040000fa
:04019400b4030000b0
:020000040000fa
:04019800b4030000ac
:020000040000fa
:04019c00b4030000a8
:020000040000fa
:0401a000b4030000a4
:020000040000fa
:0401a400b4030000a0
:020000040000fa
:0401a800b40300009c
:020000040000fa
:0401ac00b403000098
:020000040000fa
:0401b000b403000094
:020000040000fa
:0401b400b403000090
:020000040000fa
:0401b800b40300008c
:020000040000fa
:0401bc00b403000088
:020000040000fa
:0401c000b403000084
:020000040000fa
:0401c400b403000080
:020000040000fa
:0401c800b40300007c
:020000040000fa
:0401cc00b403000078
:020000040000fa
:0401d000b403000074
:020000040000fa
:0401d400b403000070
:020000040000fa
:0401d800b40300006c
:020000040000fa
:0401dc00b403000068
:020000040000fa
:0401e000b403000064
:020000040000fa
:0401e400b403000060
:020000040000fa
:0401e800b40300005c
:020000040000fa
:0401ec00b403000058
:020000040000fa
:0401f000b403000054
:020000040000fa
:0401f400b403000050
:020000040000fa
:0401f800b40300004c
:020000040000fa
:0401fc00b403000048
:020000040000fa
:100200000f9a20000eff27000e018800000000005a
:10021000000020000000e000020032000001200089
:1002200020028800140007009c0107000000e00085
:1002300003003a00e03a22000100200002003700eb
:100240000000200001002000810f7000010032003a
:1002500014000700000020000000e000020032004f
:1002600000000200000000002a240200000000003c
:100270000040da000000fe004440a900e032200007
:100280000000e00003003200002020009001880000
:100290004440a800000006008a1f78008b1f7800e9
:1002a00000000600a1028800800478000000eb0036
:1002b0001f003700e284440054a0b4009905ba003e
:1002c000e284440054a0b4009906ba00e2844400d9
:1002d00054a0b4000006eb00476fde00fd07b2003b
:1002e000ae018800636ce10003003a00eaff0700fa
:1002f0000000eb000e003700606ce10008003a00df
:10030000004deb000a05e800020039003420ec0043
:100310000af0a0008b05e900f9ff3e000400370059
:100320006168e100010032000086eb000b0007006d
:1003300019c7ba001905ba000e04e00003003a001c
:100340000a00e000dbff3a0000000600fe07b200f2
:10035000ae0288008a047800f5ff37000cd0a300b5
:10036000e20f4d001c00390089027800354dba00bb
:100370000a05e800020039003420ec000af0a00071
:100380008b05e9000f003200254dba000a05e80090
:10039000020039003420ec000af0a0008b05e900cf
:1003a000080032000c00e0000600320015cdba0053
:1003b0000a05e800020039003420ec000af0a00031
:1003c0008b05e9008984e80054a0b4000b00e0002c
:1003d000e2ff3a00000006009902ba00055d7800cd
:1003e0008b05e900f7ff3200c82ade00055d7800c2
:1003f0008b05e900f3ff32000c00e000f1ff320052
:1004000019ddba00eeff37000a13040000000000f7
:10041000bc0d0400000000006009040000000000a2
:1004200000a0fe003600f800849fbe00869fbe003c
:100430003200f8003400f80014002000a401880005
:1004400004202000940188006800fa008860a90058
:100450004140800030408000808f500004003d000b
:10046000404080000000e80040408800b6003700af
:100470000828ef005140800020408000808f50000d
:10048000ae003d000000eb00000f7800a400370034
:100490001e007800e20f50002a003c001e00780089
:1004a00080004000008120000080400010007800a3
:1004b000e10f500099003a001e00780080004000d3
:1004c000609920000080400010007800603a8800a9
:1004d0004627a8000000eb003037980003003700e3
:1004e0003e3090000000e80030379800be309000a9
:1004f000703e2000808f5000f9ff34004627a9008d
:1005000000000000303a8000610060000000e00060
:10051000fcff3200534080009038800000017800da
:100520001e0078007400b90000007800030040004d
:1005300080004000e0812000008040000208780038
:10054000760037001e007800e40f50001b003200d8
:10055000e40f500003003c00e30f5000060032009f
:100560006e003700e50f500025003200e60f500006
:10057000420032006900370051408000023580009f
:10058000000420000000610000f0a7000000ea0065
:100590000000e9004f00de001e0178007411b90070
:1005a000020178008100410001814000e1812000ca
:1005b00081004100800878005800370051408000d9
:1005c00002358000000820000000610000f0a70054
:1005d0000000ea000000e9004f00de001e01780084
:1005e0007411b900020178008100410001814000ce
:1005f000e181200081004100800878004700370039
:10060000704080000000e000110032005140800086
:1006100022338000000820000000610000f0a700e5
:100620000000ea000000e9004f00de001e01780033
:100630007411b9000201780081004100018140007d
:10064000e1812000810041008008780033003700fc
:10065000524080001e0078007400b900000078004d
:100660000200400080004000e08120000080400047
:100670008080eb00010878002800370000408000ef
:100680000000e0001a003200534080000135800075
:1006900000042000008060000000e00002003a003a
:1006a00021002000010037008000eb0002358000af
:1006b000000820000000610000f0a7000000ea0030
:1006c0000000e9004f00de00010170001e0078000c
:1006d0007400b90000007800030040008000400072
:1006e000e081200000804000020878000b00370005
:1006f000524080001e0078007400b90000007800ad
:100700000200400080004000e081200000804000a6
:100710008000eb0001087800000000001e0fe800d8
:100720001e007800e60f500059ff34005040800052
:100730000000e8005040880003003700740c0700f8
:100740000a28ef0095e1a9000080fa003400f900c2
:100750003200f9004f03be004f02be003600f90020
:100760000080fe00004006000040da000000fe00ad
:100770000a00fa0011002000b1bf9f00c0bf9f0017
:100780006a8057002d0907004fb897000080fa00d3
:10079000000006000a00fa00e20f500034003e009c
:1007a000f04c8000e10f500003003200e20f5000d7
:1007b00011003a000c003700833920000300e000ec
:1007c00001003a000040da009803e2000200350020
:1007d000a023ef0099e3a8009b43ab000d003a0073
:1007e0009b43a8000b003700e33a20000300e00021
:1007f00001003a000040da00ae03e20002003500da
:10080000b623ef00afe3a800b143ab0001003a000c
:10081000b143a800820178000b0037003102fb00d1
:10082000e10f500004003a009b23ab00feff3a00aa
:10083000e41c880003003700b123ab00feff3a0040
:10084000941d88008301e9000300e000f3ff3a00f3
:10085000e10f500003003a009b03ab00feff3200a3
:100860000b003700b103ab00feff32000800370079
:1008700033002000b3bf9f00c0bf9f00d1bf9f00c7
:10088000e2bf9f006a805700ee0807006fb997002b
:10089000020078000080fa00000006000000050059
:1008a0004f89de0082017800f001370007f8270049
:1008b000078361000638e10004003a00f7072000d2
:1008c000878361008703710001003a0003f0a200f2
:1008d000889fbe008a9fbe008c9fbe00470ade0034
:1008e0000480a100c71ade000580a10007002800cf
:1008f0000785600087856100f70f20000720e10071
:100900009e0032000728e1009c00320001067800ba
:100910000400e000b4003200f70720008780600088
:100920000170a0000500e000c0003200f7072000c1
:10093000878161000370a000050652000f003a0095
:100940000b50e1000b0032000308e10002003a0006
:100950000200e1007e00320002045000838458004f
:10096000040031000001fd008101fd008402fd0052
:100970008a05fd006044b800210037000520e10031
:1009800005003d000001fd008101fd008402fd0025
:100990008a05fd00050652007a60e1000500350079
:1009a0000170a1004722dd00848070008a80700001
:1009b000630037006044b800ef02660007ff2f00b5
:1009c000070666000500e00006003400f083120010
:1009d0008714dd000511de00071bdd000601710034
:1009e0008519de007060e10005003500090478001b
:1009f00082047800030178008001eb007006560045
:100a00000b50e10003003a000200400083804800e0
:100a10000400370060041400e0841c000200580049
:100a2000838058000188a300060032008100d100b5
:100a30000080d3008984d3000884d3000402e80036
:100a4000270037000178a30025003a000100e000ec
:100a5000030032008186cf00698656000a00370005
:100a60008c0020000000e00004003a00090078003b
:100a7000880478000004eb00700252008086cf00ea
:100a80000d0646000c06e9007060e1000600350026
:100a90008000780009007800880478000004eb00ea
:100aa00070065600700252000c00e0000c0034008a
:100ab0008c08dd00f00316000703de00868070005e
:100ac0000c00dd00074bde00060070008c4cdd00e2
:100ad0000743de00868474000c44dd000c025200e3
:100ae0006120e1002000350061016000070028005e
:100af00087816400f7ff2700878364000703740081
:100b00000300e0000600320082037300040032009c
:100b10000000e800e08048000188a3000e003a00d1
:100b2000f70f20000720e1004a003d000170a100fe
:100b30004722dd00810072008a8070000000be0044
:100b40004f06be004f05be004f04be000000060069
:100b50006000b800faff37008100d1000080d300a8
:100b60000402e800eeff37000401780089017400f8
:100b7000c20007008a807000f1ff370018010700eb
:100b8000070278000001fd008101fd00140107004b
:100b900087027800850372000778a3000400320002
:100ba0000001fd008101fd0027010700e4ff37007f
:100bb000850362000768a300080032000b50e100c3
:100bc00003003200f0ff2f00f1ff2700dcff3700a9
:100bd0000001fd008101fd00d9ff37000468a3007a
:100be000d7ff3200faff3700f8ff27008883600044
:100bf0000b003a000000e00009003a0083036400a3
:100c000082837300020032000200be00ccff370076
:100c10000b50e100ceff3a000200be00c8ff3700d3
:100c200014002000810064003eff3700f8ff270019
:100c30008883610004003a000200e00002003a00ec
:100c40008c007800beff370015002000830164008f
:100c500039ff370001f827000000200081007500ef
:100c6000b7ff37000383680007002800070363000d
:100c7000470ade000480a100c71ade000580a1003b
:100c8000f70f20000720e100420032000728e100b2
:100c900040003200889fbe008a9fbe008c1f7800f3
:100ca000f107b200f307b2000400e0006400320074
:100cb0000170a0000500e000680032000370a00091
:100cc00085054200eb07b1000204b8000302b8003a
:100cd0008484440060854a00020ab8008484440089
:100ce0000a854a00030ab8000405450004003300e1
:100cf0000804d0008984d2000a85d2008b05e9005f
:100d00006158e1003d00350002102000090161003a
:100d10000308200089816100f707200087836400b1
:100d200008867300c84cde00c853dd008784740059
:100d30004855de000300e000060032008203760022
:100d4000040032008904e80060054d000a88a30011
:100d50000c003a00f70f20000758e10044003d0066
:100d60000a70a100c75ddd000a8575008a00730066
:100d7000090078004f0678004f05be004f04be0002
:100d8000000006000a05d1008984d3008b05e80025
:100d9000f0ff3700881f78000604780090000700f5
:100da000070278000001fd008101fd008c000700b2
:100db00087027800850372000778a30005003200df
:100dc0000001fd008101fd009f0007004f04780035
:100dd00000000600850372000748a30003003200ec
:100de000f0ff2f00f1ff2700f8ff37000000200080
:100df00001f8270088807000f4ff37008801780030
:100e00004848dd00808171004848de00c850dd00a0
:100e100001007000c850de00060478000b01780065
:100e20001600070088807000d2ff37000500e00040
:100e300005003200170020003a0007009dff370030
:100e400081037000f9ff3a00860078004f067800b1
:100e50004f05be004f04be00000005008303710073
:100e6000f9ff3200270020002e00070094ff370012
:100e700001f8270086807000f4ff37000100e000d1
:100e800026003200610111007810e10023003c00cf
:100e90006022b8007010e100040035008002780084
:100ea000010078008000eb00700151000200e000ba
:100eb0000900340070031100062add00822ade00da
:100ec0008603dd00878272000200de00860bdd00f3
:100ed000070070008208de0084817100f4ff2700a3
:100ee0000482620084817100040028008482620010
:100ef0006102600005f0a600000006000482710097
:100f0000070032000000e800e08048000000060012
:100f10000002be006000b800efff37006000b800bc
:100f200000000600889fbe000004eb006138e1006d
:100f300016003a000100e00008003a00c800de0098
:100f40004800dd00880020000100e00003003a00b6
:100f5000c800de004800dd00680444008184cf0042
:100f6000e9845400060034008908dd00f083140091
:100f70008703de00878070000900dd00090444005b
:100f8000610214004f04be00000006000300e000f0
:100f900008003a00c811de004811dd00880020007a
:100fa0000300e00003003a00c811de004811dd0034
:100fb000680444008384cf00e984540006003400b0
:100fc0008919dd00f08314008713de00878171002a
:100fd0000911dd0009044400e1021400e9ff3700b3
:100fe0002700200001f0a70017002000470bde00bb
:100ff000f60fb200040032000643e8000a00320097
:101000004702b3000000060001037800f607b200b3
:101010000603700002003a000703b3000000060058
:101020008702b3000000060001037800f607b20053
:1010300006037000020032000770a00000000600e6
:101040000760a000000006000478a300040032003e
:101050000578a300030032000168a30001003a00f4
:101060000200be000160a00000000600881f78009a
:10107000030478000300e00007003d00600010005a
:10108000e080180060011900e081190002003b00b7
:1010900001f02d00030037000400070008f0a7004e
:1010a00001f0a0004f04780000000600889fbe00f9
:1010b0008a9fbe00008270000402710004827100e9
:1010c000260032000004be000200be006011b8001d
:1010d0006b092000950220000182cf000a00390030
:1010e0000541b1000082cf00070039000541b10081
:1010f0000982cf00040039000541b1000882cf0009
:10110000010039000541b1000542520012003200d1
:101110000a003b0082817100610164008100d100fe
:101120000080d3008984d3000884d3008b05e800b5
:101130000442e800f7ff3a000700370008044400c3
:1011400089844c0000004800818048008b05e9003c
:101150000442e900f9ff3a00030007004f05be0012
:101160004f04be0000000600810020006180550091
:101170000b003d000b00200061fe2f000100e1008c
:101180001d00340082817100610164008904d10076
:101190000884d3000000e800faff3a007100200044
:1011a000610064000300700002006000090032006a
:1011b00061044400e0844c000988a5000500320069
:1011c0008b05e8006808e10002003a008904d100bc
:1011d0000884d300f20f20000258e10005003d0012
:1011e000c75ddd00f907b20089807500080078004e
:1011f000000006000bf827008b00780000000500b7
:101200000000fa0068815700cfb89700b04980000d
:1012100010007800330207000080fa00000006008a
:1012200057000700af0007006001070088010700b2
:10123000e1000700ae020700590237000000fa0083
:1012400068815700cfb89700340207000080fa0089
:10125000000006004a000700a20007005301070033
:101260007b010700d4000700a10207004c023700f1
:101270008001780002003700b15978000201e900ce
:101280000200e000fcff3a0000000600b1498000c7
:10129000910078003b050700110020000000e000ed
:1012a00005003500b049800090007800a0002000c3
:1012b000e1050700cf00de000100ea0000000600a3
:1012c00000000600c093200000000600fdff07009c
:1012d000d0498800c049880000000600889fbe00f1
:1012e0000004be00080078000d0007000000440064
:1012f0008900780003000700080078004f04be0052
:1013000000000600881f78000004780008007800bc
:10131000ca050700080078004f04780000000600a6
:1013200080007800040037003104e00002003a0039
:101330000000510000000600010178000108a30030
:10134000f9ff3a008101780031017800f4ef2f00b5
:10135000020242000281ea00020162000408280041
:1013600004016100f7ff320083007800010178007a
:101370003104e000fdff3a000000510000000600cb
:10138000ec874700889fbe008a9fbe008c9fbe00ee
:101390008e1f78000006780001047800180790007e
:1013a0002805900098067800cdb79f00b8059000fa
:1013b0003202be002203be000400be000601be00d1
:1013c0004f18de006011b8008000eb00d0b79f001e
:1013d000e1b79f00f2b79f0083bf9f0080047800b1
:1013e0000900e000060032006000b8006011b8009b
:1013f0000402500085825800060359008783590073
:101400000e00e000020035000d10a100cdb79f00d6
:101410000900e00005003a004fb097000028a30043
:1014200002003a000038a300020032008a00e900fe
:10143000010037008a007800f8815700a2002000e0
:1014400008007800860007000900e00003003a0069
:10145000cfb097000128a300080032000000e90087
:1014600000814500b1c2b3000900e0000100320074
:10147000d1c2b30001497800050037000138a3004c
:10148000030032000000e90001c2b300817578005a
:10149000480190000201e9000001510080804500f0
:1014a0004fb297008a0178000c0078005b020700b9
:1014b0009c0090000188a300040032009800900076
:1014c000810f500001003d00010078004f077800b7
:1014d0004f06be004f05be004f04be00cf00b10056
:1014e000000006000200fa00889fbe008a9fbe002e
:1014f000800578000104780002007800180190004f
:101500002805900098007800b1bf9f00b8049000b3
:101510000200e000020035000110a100b1bf9f00f1
:10152000ea815700820020008a0078003002be0065
:101530002003be0008007800490007003fb997006b
:10154000f0006100030032000000e90001c3b300b5
:10155000817478003fb99700e80061000300320011
:101560000000e90001c2b3008174780048019000d6
:101570000201e90000015100808044003fba970059
:101580008a0178000b007800240207009b0090007d
:101590000188a3000400320098009000810f5000e1
:1015a00001003d00010078004f05be004f04be0061
:1015b0000080fa0000000600ea874700889fbe000e
:1015c0008a9fbe008e1f7800000478000300780018
:1015d0007287570084e2260055c72600049fbe008c
:1015e000c3962200030f78006c875700004feb0072
:1015f00011059000a1049000910578000200e00020
:10160000020032000207780001003700728757009d
:101610000000e00002003a000e00780040ff0700e2
:101620000a00e000030035008a0f50000100360078
:101630000a0078000b027800890178000001780028
:101640008e00780008007800f40107004f0778004a
:101650004f05be004f04be00af00b1000000060001
:10166000f4874700889fbe008a9fbe008c9fbe0003
:101670008e1f78000605be000404be0081bf9f00d7
:1016800082b79f00f3b79f00b0009000e1b79f00c2
:101690001301780092b79f009006900040009000e0
:1016a0000000e900000678000d00e00001003d00a8
:1016b0001d0020008040eb00efb1970081717800a1
:1016c0001e0020001f0037000c06e9000fb0970035
:1016d000cf80de006109b900a0b79f00b1b79f00bd
:1016e000c2b79f00d3b79f000203be000002be0036
:1016f0000800be000a01be002e06070000077800a1
:101700000e4078000043b000efb0970080707e007c
:101710008d06e9000fb997000201e90082bf9f0022
:101720002fb29700bfb297004fb39700dfb3970077
:101730000800be000a01be00170607000205be0031
:101740000004be000c00e0000d003400e00f540067
:10175000e08f5c00e00f5d00e08f5d00daff3a0093
:101760000d00e000d8ff3c008fb997000300e000b7
:10177000030034001fb097000018a300d2ff3a0006
:101780000e00e00002003a00ffb097001140a100f7
:101790000c0078004f0778004f06be004f05be00d2
:1017a0004f04be004f01b100000006000200fa0025
:1017b000889fbe008a9fbe00000578000104780063
:1017c0000200780018019000a804900098007800aa
:1017d000b1bf9f00b80590000200e0000200350094
:1017e0000110a100b1bf9f00ea815700a2002000b4
:1017f000890078003002be002003be000800780097
:1018000097ff0700480190000201e9000001510024
:10181000808045003fba9700890178000a0078006f
:101820007e0107009a0090000188a30004003200a6
:1018300098009000810f500001003d0001007800e9
:101840004f05be004f04be000080fa0000000600f5
:10185000fa874700889fbe008a9fbe008c9fbe000b
:101860008e1f7800800478000104780082057800db
:10187000180190002805900018077800b800900023
:101880000200e000020035000e10a1000100370048
:101890001200200070006700e0b79f0009003200ce
:1018a0003b02be002b03be00e00f5200e08f5a0047
:1018b000e00f5b00e08f5b00020032008a86e900e7
:1018c000010037008a067800e8026700f5b79f003c
:1018d000010032008d06e9003b02be002b03be0072
:1018e000e4af9f00f5af9f0086b79f0097b79f00ba
:1018f000480690000c06e9000040eb0080707e0076
:10190000efb297007fb297008903780081047800d6
:10191000d8af9f00020478008bbf9f008a05780033
:10192000034578002a0037000c06e9006fab9700ea
:101930006f006300e90f500002003c000003b0009c
:10194000010037007005b0000a03fb001604b10067
:10195000f90f53000c003e00000378000650a00071
:101960001606b100f90f530007003e00b4b79f0000
:10197000a5b79f00c7b79f0061040700cfb39700ca
:10198000afb297003fb2970080747e000804e90070
:101990008d06e9006fa89700ffa897000fb1970088
:1019a0009fb19700460020008301d1000281d3003f
:1019b0008180d3000080d3000603e900faff3a00db
:1019c000e0af9f00f1af9f0082b79f0093b79f00e9
:1019d000e10f56000f0034006fa89700ffa8970092
:1019e0000fb197009fb19700e00f5000e08f5800b3
:1019f000e00f5900e08f5900cbff3a000800e000eb
:101a0000c9ff3c000d00e000020034000e18a300e6
:101a1000c5ff3a0089007800f4b79f00870478007a
:101a20005fac97008a4178000b0578008fbd970066
:101a30000500e000100032003b02be002b03be0098
:101a4000e4af9f00f5af9f0086b79f0097b79f0058
:101a5000e00f5200e08f5a00e00f5b00e08f5b0068
:101a6000050032000c06e90083707e000c06e900d8
:101a700000c3b30080707e00ffb297000500e00055
:101a8000030032000c06e90000c2b30080707e0043
:101a9000480190000201e9000c0151008c804000d7
:101aa0000e0278008a01780009007800db00070048
:101ab000990090000188a300040032009800900073
:101ac000810f500001003d00010078004f077800b1
:101ad0004f06be004f05be004f04be00af01b1006f
:101ae000000006000200fa00881f78000004780059
:101af000e2bf9f006481570008007800860207005b
:101b0000980090000148a300010032000080eb0023
:101b10004f0478000080fa0000000600820178007f
:101b200001017800f1ff270000043700889fbe0004
:101b3000000478004800900082047800808f5400f0
:101b400001003600800478000901780058009000f8
:101b5000c7fd07005800900009004000500498009d
:101b6000c800900089845000490498000048eb00a8
:101b70004f04be00000006001000780005fb37008f
:101b8000900190000388a30001003200e7ff3700b6
:101b90000348a30001003a00f7ff07000000060019
:101ba00084082000848f50001d0032000d003c008e
:101bb00014082000848f50002700320002003c00ef
:101bc000040820000400370024082000848f5000ff
:101bd0003400320044082000848f500043003a0053
:101be00036003700040a2000848f5000270032009e
:101bf00004003c0004092000848f50003b003a00a0
:101c000028003700020c2000828f50002f00320085
:101c1000020f2000828f500034003a002b00370062
:101c20009380e9000200e00005003200810978009d
:101c30001102fb00cfa2de00612bb90028003700a3
:101c400081097800114278000482fb008002eb00d9
:101c50006033b8002200370013027800e40052001d
:101c60000200e00005003200810978001102be0088
:101c70004fabde0086037800190037008109780039
:101c80001102be006033b800150037009380e900f0
:101c90008109780011027800cfa2de00612bb90023
:101ca0000f00370093027800e88052008109780025
:101cb0003102be002103be00090037009380e90015
:101cc0000200e00002003200f1ff37009380e900db
:101cd00081097800110278008002eb006033b800bf
:101ce0000498be000690be0010000500000005002c
:101cf00044082000848f50002500320008003c007a
:101d000014082000848f50001400320024082000a2
:101d1000848f500024003200040820000c0037009b
:101d200004092000848f50001f00320004003c0092
:101d300084082000848f500024003a000e003700f1
:101d4000040a2000848f500011003200040c20008f
:101d5000848f50001d003a000d0037009380e90089
:101d6000810978009100780001087800cf91de00a9
:101d70008288be00140037009380e9008109780052
:101d80009100780001087800824878000e00370042
:101d90009380e900810978009100780001087800bb
:101da00082087800080037009380e90081097800f4
:101db00091007800010878006112b900612bb90028
:101dc0008498be008690be0010000500000005004b
:101dd000889fbe00000478004800900082047800cc
:101de000808f5400010036008004780009017800db
:101df000580090001efd07005800900009004000a8
:101e000050049800c800900089845000490498004c
:101e10000048eb004f04be0000000600f2874700b8
:101e2000889fbe008a9fbe008c9fbe008e1f7800d8
:101e300080047800010578000204780083057800aa
:101e40006107620002003a008b0f5400080039005d
:101e5000080178008a0078000900780048ff070030
:101e60008b0f540002003900880578001e003700ef
:101e7000088655000c017800f00f5600010036006e
:101e800002012000010220007e8057006f0207003f
:101e90008c0678000500370002012000fe80570004
:101ea0000900780036ff0700f0865600ef8f5600d5
:101eb000f9ff3e004461de0000ff2f000091b900f1
:101ec00002014600fe805700090078002cff070041
:101ed0000e00e00004003a00080178008a00780053
:101ee0000900780026ff07000b0078004f077800f4
:101ef0004f06be004f05be004f04be002f01b100cb
:101f000000000600000005000000050000000500bc
:101f1000000178000040eb008080fb0081804000e1
:101f20000398200063c278000404e00003003a0034
:101f30001098200060c07800000006009201780030
:101f4000934f520004003a001098200060c07800bf
:101f50000309e800010037000040e800ea4f5000a4
:101f6000edff360000000600f6874700889fbe00a0
:101f70008a9fbe008c9fbe008e1f780000057800ef
:101f80000104780083057800040678000000eb0067
:101f9000c0b79f008080eb00d1b79f00e0b79f00e3
:101fa000f2b79f000008200080bf9f0098007800d3
:101fb000010078008004eb00010037008904e8008c
:101fc000304178000204e0000300320053c2b30045
:101fd000834f5100f9ff3a000900e000040032008d
:101fe000090178000a007800e5fe0700188c44001b
:101ff0001807780050c2b3009e4f10003f013a000e
:102000000e07e8000e0c780010003700cfb09700e4
:102010000100a0000b003700cfb097000110a00016
:1020200008003700cfb097000120a000050037005e
:10203000cfb097000130a00002003700cfb097006a
:102040000140a000c1b79f00000ce8001800780014
:1020500090407800b2c2b30082cf5000f1ff32004e
:1020600007003c0002c2b30082cf5000f0ff3200f4
:1020700032c2b30082cf500007003a00efff3700b2
:10208000d2c2b30082cf5000e0ff320002c3b300df
:1020900082cf5000e0ff3200a2c2b30082cf5000d6
:1020a0000d003a00000ce8001c80e900000e7800ea
:1020b00010007800e0b79f000000e0000f003d0036
:1020c000cfb097000100a200c1b79f000000ea0056
:1020d000e0b79f000900370084010700e0b79f00c8
:1020e00001003700000ce800180078009000fb00a9
:1020f0000103b100e98f5000faff36004fb097009e
:102100000008a300020032000010a100c0b79f0029
:1021100018007800e1c2b30090cf100016003a001a
:102120008000eb00d1b79f000000e800000c7800b1
:10213000a1c2b30090cf100006003a00000ce800e6
:102140001c80e900000e780010007800d0b79f00d6
:102150000900370065010700d0b79f000100370074
:10216000000ce800180078009000fb000103b100ab
:10217000e98f5000faff36000800780064ff07007e
:1021800080467800180078001000fb005502070018
:1021900091062000810f50003800320012003c00f0
:1021a00041062000810f5000340032000a003c003c
:1021b00011062000810f500020003200310620005f
:1021c000810f5000a000320051022000810f50000a
:1021d000bc003a00b400370071062000810f5000a7
:1021e000b8003c008800370001072000810f500034
:1021f0005c00320007003c00e1062000810f500027
:102200007a003200f1062000810f5000ad003a0044
:102210003900370051072000810f5000270032009d
:1022200081072000810f500042003200310720005a
:10223000810f5000a3003a008f0037008d80fb0013
:102240000c01780000fe2f000f0040005c02070028
:102250000000e000a800320018007800000ce80040
:102260009041780002fe2f000f014100f8805700d6
:102270000a00780024ff07000e0037008d80fb0065
:102280008c0178001200200000fe2f000f0040009b
:1022900043fe07000000e00097003200180ce80041
:1022a00002fe2f000f014100f88057000a0078005d
:1022b00033fc070080844400900037008d80fb00d1
:1022c0008c0178000001eb0000fe2f000f004000a1
:1022d00033fe07000000e00087003200180ce80021
:1022e00002fe2f000f014100f88057000a0078001d
:1022f0002efd0700efff37008d80fb008c0178007a
:102300000001eb0000fe2f000f00400024fe07003c
:102310000000e00078003200180ce80002fe2f00f8
:102320000f014100f88057000a0078006dfc07009b
:10233000e0ff37008d80fb008c0178000001eb008e
:1023400000fe2f000f00400015fe07000000e00017
:102350006900320018007800000ce8009041780015
:102360001c0037008c0178000001eb00010f2000f9
:1023700000fe2f000f00400009fe07000000e000f3
:102380005d003200180ce8000fb097009fb0970076
:102390002fb19700bfb19700e00f5000e08f5800b9
:1023a000e00f5900e08f590009003a00cfb59700bf
:1023b0006fb4970080972000d9fb07000b027800cc
:1023c00088017800000178008197200047003700dd
:1023d00083c7b30002fe2f000f014100f8805700b1
:1023e0000a0078001afd0700b2ff37000b81440095
:1023f0008d80fb008c01780000fe2f000f00400054
:102400003bfe07003c0037008d80fb000c0178008c
:1024100000fe2f000f004000e90107000000e0006f
:102420003500320018007800000ce8009041780078
:1024300002fe2f000f014100f88057000a007800cb
:10244000b1fe07009bff370000c8b30080cf5600e5
:1024500029003a00180ce8001c80e900000e780002
:1024600010407800e0df9f0013002000e2fd2f0005
:102470000f0141000800370000c8b30080cf5600ac
:102480001d003a00180ce8001c80e900000e7800de
:102490008001eb0010017800f88057000a007800f6
:1024a00045fc070083ff370000c8b30080cf56000b
:1024b00011003a00180ce8004fb29700efb19700f6
:1024c000080037000e0c78000000eb00c0b79f003a
:1024d000e0b79f000080eb00d0b79f000002eb0048
:1024e0008401780012002000e19720000a007800a3
:1024f0004afe07006fff3700180ce800090078005b
:102500004f0778004f06be004f05be004f04be00c7
:102510006f01b100000006008200fa00889fbe0033
:102520008a1f78000005780082047800c13f9f0070
:102530000004eb00100037000902780088017800e1
:10254000a2f72f000f01410081f72f008f8040007c
:102550000a00780084fe070008004000880f500041
:1025600004003d00b0042000e04c88000084eb0033
:1025700004003700000478004f3897001004e00092
:10258000edff3a00080078004f0578004f04be00c8
:102590000080fa0000000600889fbe000004be0014
:1025a0000000eb000800e000180032001800900066
:1025b0000058a3000d003200d80090006800900081
:1025c000808f500009003600b80990000001eb0030
:1025d000820078000800780003000100d800900015
:1025e0000080eb000100e000080032000000eb007a
:1025f000200c980060049800500498000900e00046
:10260000020032001800780059f807004f04be009d
:1026100000000600889fbe000004be000000eb0022
:102620000800e00025003200180090000058a300c8
:1026300011003200d800900068009000808f500098
:1026400009003600b80990000001eb008200780014
:102650000800780003000100d80090000080eb0023
:102660000100e000150032000000eb00200c980093
:102670006004980050049800780a900008109000b8
:10268000800f5200060031000002520011002000ad
:10269000cfa2de00612bb9001800780065000700aa
:1026a0000000eb0000149800700c98000900e00096
:1026b00002003200180078002df807004f04be0019
:1026c00000000600800078001000200002022000b8
:1026d000828f500004003200e9805000e48f5000e7
:1026e000010036000000eb0000000600889fbe00dd
:1026f0008a1f7800000578000a0478009844780062
:102700000805e8000900fb00eeff07000000e000fc
:10271000f9ff3a00b0c2b30080cf54000500320088
:10272000d0c2b3008000eb0080cf540005003a0017
:10273000020037008000eb0001003700110020008c
:102740000804e8000000eb00030037006a02b9004b
:10275000020052000003b0003801fb0003fd2f000f
:1027600082814100e98f5100f8ff36000100e0004e
:1027700001003a000000ea004f0578004f04be0057
:1027800000000600889fbe008a1f78008004780041
:102790000105780009007800e1fa070000047800dc
:1027a0008a017800080178001100200009007800f3
:1027b0000a000700800078000080eb00888f50003e
:1027c00001003a000000eb004f0578004f04be0006
:1027d0000000060010007800eef73700889fbe006a
:1027e0008a9fbe00810478000204780009c5b90000
:1027f0000900e00001003a000004eb000a01780043
:102800008000780003007800dbfc0700800078007f
:102810008a8f500003003200110009008980d8001f
:1028200000047800080078004f05be004f04be0089
:1028300000000600a0fd2f00f1ff2f009f00070001
:102840004f89de008201780000000600889fbe00ec
:102850008a9fbe00800478000200e0005b00320026
:1028600001407800814c780082814400f1f99f009a
:10287000e20f51005500360091449800a1449800a1
:10288000e1f99f00d1f99f00e60f51004f0036009b
:10289000b1449800c1f99f00e80f51004b00360089
:1028a0000905ea00630565000a8444000a05510031
:1028b000c1ff2f00010565000080fb008000eb00d8
:1028c000121020001310200014010700008cbe001d
:1028d0000a01440060b99f0071b99f00e80f5500dc
:1028e0003a00360020049800310498004004980013
:1028f0005104980020b99f0031b99f0040b99f0052
:1029000051b99f00f80f5500300036006004980060
:1029100071049800000c9800110c9800200c98008d
:10292000310c9800400c9800510c980020b19f0089
:1029300031b19f0040b19f0051b19f0060b19f0035
:1029400071b19f0000b99f0011b99f00640164003c
:102950007801410002044400020555006011b800ee
:102960000203be000002be000403be006022b800e5
:102970000000720081807200020173008381730085
:1029800010003700009cbe000294be004004980076
:10299000510498006204980073049800000c980099
:1029a000110c9800220c9800330c9800400c9800f1
:1029b000510c9800620c9800730c98000a02b10048
:1029c0000802b000ff0f5500eeff3e00090078003e
:1029d0004f05be004f04be00000006000200fa00d2
:1029e00081017800e0ff9f00930090000188a30020
:1029f00005003200d3009000805878000080fb0072
:102a0000d10198000a003700120020008f80e900f1
:102a10000300780058fc0700800078000080eb007d
:102a20000100e00002003200eff897000180fb0097
:102a30000080fa0000000600e8ff3700010178007e
:102a400080017800008268000408a30005003200bd
:102a50001300370032407800805978000004e0000d
:102a600014003200030278000208a300f9ff3a00c4
:102a70000300780001003700031878008200780016
:102a8000b2017800f5ef2f00838242000382ea0052
:102a9000048262000508280005026200f6ff320089
:102aa0000002780031417800025878000204e0000a
:102ab000fbff3a00040078000000060002002f002f
:102ac000f3ff2f00820f5000838f58000400360060
:102ad0000000ea00e04c88000080eb008080eb0002
:102ae00000000600f1fb2f0080804000f98f5000ad
:102af00001003e000050a00000000600f9ff370072
:102b0000f1f92f0080804000f98f500001003e0055
:102b1000f005b20000000600f9ff370000000600d3
:102b2000eaf90700fdff0700fcff3700f2874700c6
:102b30008e1f780002027800030178000000e00098
:102b4000020032000007780001003700728757004a
:102b50008002eb000100e000010032008102e90088
:102b600070805700060009000018eb000080eb00a1
:102b700080bf9f002310200093bf9f00aebf9f0027
:102b8000b1bf9f00c5bf9f000100e00003003d00f2
:102b9000b1042000e14c880006003700004feb0034
:102ba000eebf9f00debf9f0084007800708057005a
:102bb000ccfb07004f0778002f01b1000000060092
:102bc000881f78000004780000082000808f5000e3
:102bd0001700350010082000808f50000b003400d3
:102be00030082000808f500011003a0092007800d9
:102bf00068805000000978003002be002003be004b
:102c0000049cbe000694be000700370092027800c4
:102c100064805200000978001000be000b0007001d
:102c2000009cbe000294be0010002000010037008e
:102c30000000eb004f0478000000060000c0da003e
:102c40000000060000c0da000000060081037800e2
:102c50001d0007000001be006000b8000478a3005a
:102c600013003a006220e10015003e000d0039001b
:102c70008301d1000281d3008180d3008301d10080
:102c80000281d3008180d3008301d1000281d3006f
:102c90008180d3000538b000c42add00f300b20003
:102ca0008381720007f0a70003f0a0000000060077
:102cb00083ff2700020020006110b900f9ff3700f0
:102cc00003ff2700f7ff3700c70ade00f107b20055
:102cd000f50fb20008003200e1cf420002003200de
:102ce0000170a00024000500810f70000100320077
:102cf0000408050044000500810f700002003a003e
:102d0000140005008502e9000000400081c0480071
:102d1000fcff3b000170a00024000500020ab9007e
:102d2000001bb9000200b80081004200810043008e
:102d300000000600889fbe008a9fbe00300442004b
:102d4000b0844a0030054b0090854b006000b10014
:102d50000898be000a90be000440e10005c8e100ea
:102d600006d0e10007d8e100020031006800400011
:102d70001008e8004f05be004f04be00000006002a
:102d8000889fbe008a9fbe003004be002005be00a2
:102d90000418540005985c0006185d0007985d0053
:102da000110020000440e10005c8e10006d0e10068
:102db00007d8e100010039008000eb001088100006
:102dc0004f05be004f04be00000006001200fa00ce
:102dd000889fbe008a9fbe008c9fbe00e0b79f0008
:102de000f1b79f0082bf9f0093bf9f000605be0002
:102df0000404be000000eb00d0b79f00c0b79f00e6
:102e0000b0b79f00a0b79f0090b79f000006780062
:102e10005fb19700cfb09700820141003fb09700ab
:102e20000200e00004003d00370007007e805700ec
:102e3000c0ff070003003700330007007e80570003
:102e4000cfff0700dfb697000d00e0000c00350053
:102e50006fb29700ffb297000fbb97009fbb970020
:102e600010002000010020006011b8000002720074
:102e70008182720002037300838373001b000700ca
:102e80000c06e80001042000810f5600e0ff3a0024
:102e90000d00e00004003d000802be000a03be0071
:102ea0007e805700a3ff07005fa897000000e000a6
:102eb00005003a001fb29700afb297003fb39700ea
:102ec000cfb39700090007006fb09700ffb09700dd
:102ed0000fb997009fb997004f06be004f05be007f
:102ee0004f04be000080fa00000006000100070049
:102ef00000000600a4b79f00b5b79f00c6b79f00ab
:102f0000d7b79f00000006004f09de0082817100e4
:102f1000b3b79f004f01de008180400082807000c7
:102f2000a1b79f008fb097004f09de00000040005e
:102f30000200700090b79f007fa897004f01de004d
:102f4000818040008280700081b79f000d000700e3
:102f50004f3ade000000400004007000f0af9f0018
:102f6000080007000402420085824a0006034b0065
:102f700087834b00dfff07000802be000a03be0084
:102f8000000006002fb29700bfb297004fb3970022
:102f9000dfb3970000000600881f780018002000ab
:102fa000881f780089ff07008f87e9004f047800a9
:102fb00000000600801feb0084ff07008f87e900f8
:102fc00000000600889fbe008a9fbe00e00f5000f0
:102fd000e08f5800e00f5900e08f59000c003d00d1
:102fe0006044b8006055b8000000540081805c0067
:102ff00002015d0083815d001800200015000700bc
:1030000008003d00180007000004eb000500370031
:103010000004eb000f00070002003d001200070053
:1030200018002000dcff07000800e0000600320066
:103030006022b8006033b8000000520081805a005e
:1030400002015b0083815b004f05be004f04be00a0
:1030500000000600e00f5200e08f5a00e00f5b0016
:10306000e08f5b00000006006044b8006055b800c7
:103070000402540085825c0006035d0087835d00c6
:1030800000000600889fbe008a9fbe008c1f78004b
:10309000e00f5000e08f5800e00f5900e08f59001a
:1030a0000d003d006044b8006055b80000005400b9
:1030b00081805c0002015d0083815d001c002000b6
:1030c0000820e10009a8e1000ab0e1000bb8e10026
:1030d0000d003d00080037000006eb00e00f520035
:1030e000e08f5a00e00f5b00e08f5b0006003d00c0
:1030f0006044b8006055b8000402540085825c004a
:1031000006035d0087835d00aaff07000c00e00056
:10311000060032006022b8006033b80000005200a0
:1031200081805a0002015b0083815b004f067800ba
:0c3130004f05be004f04be00000006006a
:020000040000fa
:10313c007b000000456d0000706500007a6f000098
:10314c00206500006c200000656e000076690000b0
:10315c006f20000064650000206d0000656e0000ab
:10316c00736100006a65000073200000706f00003e
:10317c00722000004a5300004f4e00000a0000006d
:10318c002c200000005b0000002500006400000003
:10319c002c0000005d0000002c20000027440000e3
:1031ac00562700003a2000005b0000007d00000064
:1031bc000d0a0000004900006e760000616c0000f2
:1031cc0069640000206600006f7200006d610000f1
:1031dc00743a0000206d00006973000073690000f0
:1031ec006e670000202700007b27000000490000cc
:1031fc006e760000616c00006964000020760000af
:10320c00616c0000756500003a20000065780000d4
:10321c0070650000637400006564000020300000dd
:10322c00206f0000722000003100000009440000f3
:10323c0025630000203d000020250000640a0000ea
:10324c0000430000616e0000616c00002062000011
:10325c006964000069720000656300007469000015
:10326c006f6e0000616c000020650000737400003c
:10327c0061200000256400000d0a000000540000cd
:10328c005249000053410000373d00002564000006
:10329c002c20000052410000373d00002564000046
:1032ac002c2000004c41000054410000373d000030
:1032bc00256400000d0a0000004300006865000052
:1032cc00676f0000752000006e6f00002063000027
:1032dc00686100006e6700006520000064690000f2
:1032ec007265000063740000696f00006e0a0000d4
:1032fc0000430000616e0000616c0000207600004d
:10330c006972000074750000616c0000206400009c
:10331c0065200000636f00006d7500006e69000091
:10332c0063610000636900006f6e000020630000a1
:10333c00616d000062690000616400006f20000094
:10334c00706100007261000020250000640a00001a
:10335c000043000075720000726500006e7400007e
:10336c0020730000656e0000736f00007220000077
:10337c006d610000703a00000050000065720000a2
:10338c00696f0000646f000020630000616d000035
:10339c0062690000616400006f2000007061000031
:1033ac007261000020250000640a0000004e00003d
:1033bc00756d0000657200006f20000064650000f0
:1033cc00206100006d7500006573000074720000d0
:1033dc006173000020630000616d000062690000f1
:1033ec00616400006f2000007061000072610000d9
:1033fc0020250000640a0000004300006f640000f8
:10340c00696700006f200000646500002061000007
:10341c0076690000736f000020630000616d00008e
:10342c0062690000616400006f20000070610000a0
:10343c007261000020250000640a0000004f0000ab
:10344c0070e70000e36f0000206900006e6300006d
:10345c006f72000072650000746100002c20000087
:10346c00746500006e740000652000006f7500002c
:10347c007472000061200000766500007a2e000056
:10348c000009000041250000632000003d200000e1
:10349c00256400000a000000556e00006b6e0000f1
:1034ac006f7700006e200000696e000070750000e0
:1034bc007420000074790000706500003a20000050
:1034cc00256300000a00000057610000726e0000c6
:1034dc00696e000067200000766100006c750000ca
:1034ec00652000006973000020740000686500000e
:1034fc0020730000616d0000652000006173000006
:10350c0020620000696400006972000065630000bd
:10351c00746900006f6e0000616c00002063000095
:10352c00686100006e6e0000656c00000a0000000f
:10353c0027410000782700003a20000000270000f7
:10354c0041790000273a00002000000027410000cc
:10355c007a2700003a2000000027000044360000c3
:10356c00273a000020000000274400003727000005
:10357c003a2000000027000044420000273a0000d7
:10358c002000000027440000562700003a200000cd
:10359c00000000009e9a0000a59a0000ac9a000062
:1035ac00b39a0000ba9a0000c19a0000c89a0000b1
:1035bc003d3d00003d3d00003d3d00003d3d000017
:1035cc003d3d00003d3d00003d3d00003d3d000007
:1035dc003d3d00003d3d00003d3d00003d3d0000f7
:1035ec003d3d00003d3d00003d3d00003d3d0000e7
:1035fc003d3d00003d3d00003d3d00003d3d0000d7
:10360c003d3d00003d3d00003d3d00003d3d0000c6
:10361c003d3d00003d3d00003d3d00003d3d0000b6
:10362c003d3d00003d3d00003d0a00002020000013
:10363c00202000002020000020570000494c0000f2
:10364c004b4f00004d4d0000454e00002041000046
:10365c005553000020470000525500004e2000003a
:10366c00484f0000524500004e2000002d20000065
:10367c0044450000555400005343000048450000e9
:10368c002042000055520000474500004e570000f4
:10369c00455200004b200000202000000a200000b2
:1036ac00204500004e4e00005457000049430000d6
:1036bc004b4500004c540000205600004f4e0000bb
:1036cc0020200000524f00004d4100004f2c000004
:1036dc00204a0000554c0000494f0000204c0000cf
:1036ec004f500000455300002045000020520000c0
:1036fc004f44000052490000474f00002053000087
:10370c00494d00004f450000530a00003d3d0000ac
:10371c003d3d00003d3d00003d3d00003d3d0000b5
:10372c003d3d00003d3d00003d3d00003d3d0000a5
:10373c003d3d00003d3d00003d3d00003d3d000095
:10374c003d3d00003d3d00003d3d00003d3d000085
:10375c003d3d00003d3d00003d3d00003d3d000075
:10376c003d3d00003d3d00003d3d00003d3d000065
:10377c003d3d00003d3d00003d3d00003d3d000055
:0c378c003d3d00003d3d00000a00000033
:020000040000fa
:103798000200fa00000f7800000220009e00780066
:1037a800808f5000040032001e007800690050002d
:1037b800e40f500002003e00100020000100370016
:1037c8000000eb000080fa00000006000000fa008c
:1037d8007e06a8007606a8007e26a8007626a80001
:1037e8007e46a8007646a800a6c6a9009ec6a800e0
:1037f800a6e6a9009ee6a8006286a90062a6a9001e
:1038080062c6a9006ae6a90062e6a80066e6a90001
:1038180066c6a90066a6a9006686a9000080fa0007
:10382800000006000000fa0001088000f00b2000ec
:103838000081600060042000710520000310200052
:10384800804978008149780082497800213f8000ca
:10385800f00f280080806000003020000100700018
:10386800203f8800a13d800000fc2f000080600000
:10387800a000b300a03d88009a23ef0000002800b4
:10388800c01c8800c0002000001d88009b43a800c1
:103898009b83a80099e3a8009980a9009960a900d2
:1038a8000080fa00000006000000fa004627ef003a
:1038b8004827ef0020f02100503a880047e7a80089
:1038c8000080fa00000006000000fa009021ef00d6
:1038d80000112100a00c880090d02300900c8800d3
:1038e80041058000f0ff28000080600000c0a000b3
:1038f800400588008860a9009860a80095e1a800a4
:103908000080fa00000006002401fa0021102000bf
:103918008100470002ad290006000900b2187800ae
:103928006800470022002000e18929004ef60700c0
:10393800008a29006501070010002000000f7800a8
:103948000000eb0010079800540037001e0090009c
:1039580080004000008120000080400010007800b6
:103968000000e0004a0032001e0078000000e0007d
:1039780007003a006800470067f60700e8004700bc
:103988000080400032002000618c290036f60700d4
:103998000000eb00000f78001e00900000004000bf
:1039a80000004700900091006800470049f60700b2
:1039b8006800470058f60700e8004700008040000c
:1039c80022002000918c290027f607000000eb0058
:1039d80020079800230037001e0090007400b900eb
:1039e800800078002e009000008040008000400099
:1039f800e081200000804000900078000011200045
:103a08000e004000811f7800b18c2900811f7800ca
:103a180008f60700e4875700011120008e80400057
:103a2800680047002bf60700204080008000e9006e
:103a38002e009000808f5000070034006800470077
:103a480035f60700e800470000804000220020000b
:103a5800e18c290004f607002e0090000000e80021
:103a68002007980020408000ae009000808f500012
:103a7800d9ff35006800470027f60700e80047002f
:103a88000080400022002000018d2900f6f5070083
:103a98001e0090000000e800100798001e0090002b
:103aa800e50f5000a9ff3400004080000000e0004e
:103ab8003e0032006800470017f60700e80047009c
:103ac80000804000a2002000218d2900e6f50700b3
:103ad8000000eb0030079800290037003e009000f6
:103ae800c003b00080004000e0812000008040005a
:103af8001000780000004000800078003e00900030
:103b08000005b00000014000e081200000004100f5
:103b18001000780081007000001120000e004000a5
:103b2800811f7800b18c2900811f7800c1f507003a
:103b3800e4875700011120008e804000680047008c
:103b4800e4f50700204080008000e9003e00900076
:103b5800808f50000700340068004700eef507002a
:103b6800e80047000080400022002000e18c290086
:103b7800bdf507003e0090000000e80030079800ff
:103b880020408000be009000808f5000d3ff350099
:103b980068004700e0f50700e800470000804000a3
:103ba80022002000018d2900aff5070068004700ba
:103bb800d9f50700e80047000080400022002000f7
:103bc800c18d2900a8f5070068004700d2f5070055
:103bd800e80047000080400032002000e18d290005
:103be800a1f5070068004700b80007000080fa0048
:103bf800000006000200fa00004f780000000000f4
:103c0800d11c800000202000008060000000e0003f
:103c1800fbff3a001e00fb00e01c88000080fa0051
:103c2800000006000800fa0030079800be00900067
:103c3800010f78001e00780090407800b0c7b300ec
:103c480080cf500007003a001e0fe8001e007800e1
:103c580090407800d0c7b30080cf500093003a005e
:103c680098003700108e290086f507009500370068
:103c78001e007800104078000004e00019003200af
:103c88001e0fe80001003700000000001e00780049
:103c9800104078000080fb00bdfe07000000e00037
:103ca800f3ff3a001e00780090407800c0c2b300cd
:103cb80080cf5000eeff32001e0078009040780060
:103cc80020c2b30080cf5000e9ff32001e00780008
:103cd80090407800a0c3b30080cf5000e4ff3200ca
:103ce80001003700000000001e00780090407800b6
:103cf800414798001e0fe8001e00780090407800a9
:103d0800514798001e0fe800050037001e00780094
:103d1800104078000004e000170032001e0fe80091
:103d28001e007800104078000080fb0098fe070015
:103d38000000e000f5ff3a001e007800904078008f
:103d4800c0c2b30080cf5000f0ff32001e007800e0
:103d58009040780020c2b30080cf5000ebff3200c3
:103d68001e00780090407800a0c3b30080cf5000b8
:103d7800e6ff320001003700000000000000eb0001
:103d8800100798001e0078009040780000c3b30028
:103d980080cf500003003a000000eb0010079800a5
:103da8000b0037001e0078009040780010c3b30065
:103db80080cf500003003a00100020001007980040
:103dc80003003700d08f29002ef507003d0037008b
:103dd8001e0fe8005e4090000000fb009e0090006f
:103de800811f7800801f7800c0912900801f78000b
:103df80001f50700e68757005e4090000000fb00d1
:103e080091072000810f500011003200a107200007
:103e1800810f50001900320081072000810f5000e7
:103e280027003a001e0090000040780061406000c2
:103e38000080fb00610060004600dd003133800037
:103e48000160a100010070003033880016003700bf
:103e58001e00900000407800614060000080fb0078
:103e6800610060004500dd00313380000150a10091
:103e780001007000303388000b0037001e009000ee
:103e880000407800614060000080fb006100600035
:103e98004400dd00313380000140a10001007000c2
:103ea8003033880000000000060037001e0078004c
:103eb800104078000004e00073ff3a00010037006a
:103ec800000000000080fa00000006000200fa006e
:103ed800000f7800040037001e00780010407800ba
:103ee80044ff07001e0fe8001e007800104078000d
:103ef8000004e000f8ff3a000080fa000000060025
:103f08000000fa0000000000d01c80006100600082
:103f18000000e000fcff3200f01c80000040780048
:103f28000080fa00000006000200fa00000f780086
:103f38001e007800cf80de0057f20700d2cc2c009c
:103f4800c3dc230045f30700a299290003282400b5
:103f580054f207000080fa00000006003200fa0060
:103f6800704080000000e00003003a0062e6a9000b
:103f780066e6a8000200370066e6a90062e6a80027
:103f880070408000801f780070922900801f7800a0
:103f98000e007800a7f40700e48757000e007800a9
:103fa800caff0700303380004700de006140600030
:103fb8000081fb00203380004700de006140600084
:103fc8008080fb00103380004700de006140600005
:103fd8000080fb00821f7800811f7800801f780016
:103fe80050942900801f78000e00780091f4070093
:103ff800e88757000e007800b4ff07000080fa0039
:10400800000006000600fa00200798000000eb00f8
:10401800000f7800baff0700204798002e40900054
:10402800ea4f500004003200600c20009e00780027
:10403800808f5000090034001e007800ae00900008
:10404800008040008040eb00014878002e0090007e
:10405800090007000080fa00000006001e00780032
:10406800ae00900000804000ae409000014878000b
:104078001e0fe800e7ff3700ce00fa0060a798009f
:104088000000eb00000f78000000eb00100798001c
:10409800190037001e009000eea09000008040003c
:1040a80090407800640047001e00400001487800f6
:1040b8001e0fe8001e0090000000e800100798009e
:1040c80001003700000000001e007800eea09000fc
:1040d8000080400090407800d0c7b30080cf5000e7
:1040e800ecff3a00640047000b0007001e0fe800d1
:1040f8000000eb00100798001e007800eea090006a
:1041080000804000104078000004e000edff3a0015
:104118000080fa00000006004800fa0030279800e6
:104128003e20900090407800b0c7b30080cf500088
:1041380096003a003e2090000000e8009040780089
:1041480020c2b30080cf500090003a003e2090007b
:104158000080e800104078000000fb00e106200025
:10416800810f50005f003200e1062000810f5000ef
:104178000a003c0041042000810f50003700320043
:1041880021062000810f5000150032001104200084
:10419800810f50002c0032007400370031072000d6
:1041a800810f50006f00320031072000810f50004e
:1041b80004003c0001072000810f50003900320044
:1041c8006a00370061072000810f50000e0032009e
:1041d80071072000810f5000520032006300370041
:1041e8003096290039ff07003e2090006500400006
:1041f800104078000000fb000003b1007040880008
:1042080056ff0700600037003e2090006500400020
:10421800104078000000fb000003b1000040880057
:1042280000408000801f7800f0972900801f7800e8
:104238000e007800fff30700e48757000e007800af
:1042480022ff070050003700f09a29000df40700fc
:104258003e209000550007004b0037003e2090009c
:10426800630040009040780000c6b30080cf500043
:10427800090034003e209000630040009040780020
:10428800a0c7b30080cf500003003c003e20900040
:1042980064fe0700020037003e209000430007003c
:1042a800390037003e20900065004000104078003b
:1042b8000000fb000003b10030408800304080005f
:1042c800801f7800309c2900801f78000e0078003d
:1042d800d8f30700e48757000e007800fbfe0700bc
:1042e800290037003e20900065004000104078000b
:1042f8000000fb000003b10020408800204080003f
:10430800801f7800d09d2900801f78000e0078005b
:10431800c8f30700e48757000e007800ebfe07009b
:10432800190037003e2090006500400010407800da
:104338000000fb000003b10010408800104080001e
:10434800801f780030a02900801f78000e007800b8
:10435800b8f30700e48757000e007800dbfe07007b
:1043680009003700f7000700070037002202200085
:1043780051a229000e007800bbf307003e209000f0
:10438800d2fe0700000000000600370022022000cd
:1043980051a229000e007800b3f307003e209000d8
:1043a800cafe07000080fa00000006000800fa00b4
:1043b80030079800be009000010f78001e007800ba
:1043c80090407800b0c7b30080cf500002003a0098
:1043d8001e0fe800b5003700108e2900a9f307006a
:1043e800bb0037001e007800104078000004e00091
:1043f800190032001e0fe80001003700000000001d
:104408001e007800104078000080fb00e0fc0700e8
:104418000000e000f3ff3a001e00780090407800aa
:10442800c0c2b30080cf5000eeff32001e007800fb
:104438009040780020c2b30080cf5000e9ff3200de
:104448001e00780090407800a0c3b30080cf5000d1
:10445800e4ff320001003700000000001e00780071
:1044680090407800414798001e0fe8001e00780031
:1044780090407800514798001e0fe800050037006b
:104488001e007800104078000004e0001700320099
:104498001e0fe8001e007800104078000080fb0026
:1044a800bbfc07000000e000f5ff3a001e007800a2
:1044b80090407800c0c2b30080cf5000f0ff3200b7
:1044c8001e0078009040780020c2b30080cf5000d2
:1044d800ebff32001e00780090407800a0c3b300c4
:1044e80080cf5000e6ff32000100370000000000d6
:1044f8000000eb00100798001e007800904078003c
:1045080000c3b30080cf500003003a000000eb0066
:10451800100798000b0037001e00780090407800c4
:1045280010c3b30080cf500003003a0010002000f1
:104538001007980003003700d08f290051f30700b7
:10454800630037001e0fe8004e4090000000fb009b
:1045580011042000810f50000400320041042000a3
:10456800810f50001f003200470037005e40900066
:104578000000fb009e009000811f7800801f7800db
:1045880070a42900801f78001bf30700e6875700f6
:104598005e4090000000fb0091072000810f500052
:1045a80009003200a1072000810f500009003200e5
:1045b80081072000810f50003b003a009e009000c8
:1045c80081408800060037009e00900091408800d6
:1045d800030037009e009000a14088000000000002
:1045e800320037005e4090000000fb009e00900003
:1045f800811f7800801f7800c0912900801f7800f3
:10460800fdf20700e68757005e4090000000fb00bf
:1046180071032000810f5000110032007103200047
:10462800810f500004003c0061032000810f5000fe
:10463800080032001d00370021042000810f5000bf
:104648000a00320061052000810f50000a00320084
:10465800160037009e009000b1408800090037001e
:104668009e009000c1408800060037009e00900020
:10467800d1408800030037009e009000e140880088
:1046880000000000090037004e4090000000fb00c9
:10469800801f780020a52900801f7800d6f2070027
:1046a800e487570001003700000000001e00780072
:1046b80090407800d0c7b30080cf5000040032008b
:1046c8001e007800104078000004e0004bff3a001c
:1046d8000080fa00000006000000fa000040800098
:1046e8000000e000150032000135800000042000c1
:1046f800008060000000e00002003a002100200075
:10470800010037008000eb0002358000000820001f
:104718000000610000f0a7000000ea000000e900c6
:104728004f00de008100700010408000808f500034
:1047380002003a00a0a62900e4fd07000080fa0064
:10474800000006000000fa005ffc07000080fa0085
:044758000000060057
:020000040000fa
:10475c00960900000600000082000000040005001d
:10476c00000100001008000026010000800000007d
:10477c000c08000004000000820000000100010091
:10478c0000000000000800000c0000008000000089
:10479c003609000042000000820000003a093c008b
:1047ac00093c0900010003000000000000000000ab
:1047bc000000000000000a001300000000000000d0
:1047cc0000bc0d00600900000000000000000000ab
:1047dc0000000000000000000000000000000000cd
:1047ec0000000000000000000000000000000000bd
:1047fc0000000000780900001e000000820000008c
:10480c00286e69006c29000025006800076c0900ff
:10481c004c836a009074a0007ac000008068880005
:10482c0000846c00820081009c09000002000000e2
:10483c00800000009e0900000200000082000000c1
:08484c00010000000000000063
:020000040000fa
:10485400d000fa0060a7980071a79800f2fb070047
:10486400dbfb070011fc0700e0ad290098fd070001
:104874000e007800e4fd070098ff07006000b80010
:1048840040a7980051a79800060037004ea090005a
:10489400dea0900061004000e080480040a798003e
:1048a40051a798004ea19000dea19000f070220064
:1048b40001002000800f5100818f5900f3ff340064
:0448c400ebff3700cf
:00000001FF
