:020000040000fa
:080000000001040000000000f3
:020000040000fa
:040008003a020000b8
:020000040000fa
:04000c003a020000b4
:020000040000fa
:040010003a020000b0
:020000040000fa
:040014003a020000ac
:020000040000fa
:040018003a020000a8
:020000040000fa
:04001c003a020000a4
:020000040000fa
:040020003a020000a0
:020000040000fa
:040024003a0200009c
:020000040000fa
:040028003a02000098
:020000040000fa
:04002c003a02000094
:020000040000fa
:040030003a02000090
:020000040000fa
:0400340004020000c2
:020000040000fa
:040038003a02000088
:020000040000fa
:04003c003a02000084
:020000040000fa
:040040003a02000080
:020000040000fa
:040044003a0200007c
:020000040000fa
:040048003a02000078
:020000040000fa
:04004c003a02000074
:020000040000fa
:040050003a02000070
:020000040000fa
:040054003a0200006c
:020000040000fa
:040058003a02000068
:020000040000fa
:04005c003a02000064
:020000040000fa
:040060003a02000060
:020000040000fa
:040064003a0200005c
:020000040000fa
:040068003a02000058
:020000040000fa
:04006c003a02000054
:020000040000fa
:040070003a02000050
:020000040000fa
:040074003a0200004c
:020000040000fa
:040078003a02000048
:020000040000fa
:04007c003a02000044
:020000040000fa
:040080003a02000040
:020000040000fa
:040084003a0200003c
:020000040000fa
:040088003a02000038
:020000040000fa
:04008c003a02000034
:020000040000fa
:040090003a02000030
:020000040000fa
:040094003a0200002c
:020000040000fa
:040098003a02000028
:020000040000fa
:04009c003a02000024
:020000040000fa
:0400a0003a02000020
:020000040000fa
:0400a4003a0200001c
:020000040000fa
:0400a8003a02000018
:020000040000fa
:0400ac003a02000014
:020000040000fa
:0400b0003a02000010
:020000040000fa
:0400b4003a0200000c
:020000040000fa
:0400b8003a02000008
:020000040000fa
:0400bc003a02000004
:020000040000fa
:0400c0003a02000000
:020000040000fa
:0400c4003a020000fc
:020000040000fa
:0400c8003a020000f8
:020000040000fa
:0400cc003a020000f4
:020000040000fa
:0400d0003a020000f0
:020000040000fa
:0400d4003a020000ec
:020000040000fa
:0400d8003a020000e8
:020000040000fa
:0400dc003a020000e4
:020000040000fa
:0400e0003a020000e0
:020000040000fa
:0400e4003a020000dc
:020000040000fa
:0400e8003a020000d8
:020000040000fa
:0400ec003a020000d4
:020000040000fa
:0400f0003a020000d0
:020000040000fa
:0400f4003a020000cc
:020000040000fa
:0400f8003a020000c8
:020000040000fa
:0400fc003a020000c4
:020000040000fa
:040100003a020000bf
:020000040000fa
:040104003a020000bb
:020000040000fa
:040108003a020000b7
:020000040000fa
:04010c003a020000b3
:020000040000fa
:040110003a020000af
:020000040000fa
:040114003a020000ab
:020000040000fa
:040118003a020000a7
:020000040000fa
:04011c003a020000a3
:020000040000fa
:040120003a0200009f
:020000040000fa
:040124003a0200009b
:020000040000fa
:040128003a02000097
:020000040000fa
:04012c003a02000093
:020000040000fa
:040130003a0200008f
:020000040000fa
:040134003a0200008b
:020000040000fa
:040138003a02000087
:020000040000fa
:04013c003a02000083
:020000040000fa
:040140003a0200007f
:020000040000fa
:040144003a0200007b
:020000040000fa
:040148003a02000077
:020000040000fa
:04014c003a02000073
:020000040000fa
:040150003a0200006f
:020000040000fa
:040154003a0200006b
:020000040000fa
:040158003a02000067
:020000040000fa
:04015c003a02000063
:020000040000fa
:040160003a0200005f
:020000040000fa
:040164003a0200005b
:020000040000fa
:040168003a02000057
:020000040000fa
:04016c003a02000053
:020000040000fa
:040170003a0200004f
:020000040000fa
:040174003a0200004b
:020000040000fa
:040178003a02000047
:020000040000fa
:04017c003a02000043
:020000040000fa
:040180003a0200003f
:020000040000fa
:040184003a0200003b
:020000040000fa
:040188003a02000037
:020000040000fa
:04018c003a02000033
:020000040000fa
:040190003a0200002f
:020000040000fa
:040194003a0200002b
:020000040000fa
:040198003a02000027
:020000040000fa
:04019c003a02000023
:020000040000fa
:0401a0003a0200001f
:020000040000fa
:0401a4003a0200001b
:020000040000fa
:0401a8003a02000017
:020000040000fa
:0401ac003a02000013
:020000040000fa
:0401b0003a0200000f
:020000040000fa
:0401b4003a0200000b
:020000040000fa
:0401b8003a02000007
:020000040000fa
:0401bc003a02000003
:020000040000fa
:0401c0003a020000ff
:020000040000fa
:0401c4003a020000fb
:020000040000fa
:0401c8003a020000f7
:020000040000fa
:0401cc003a020000f3
:020000040000fa
:0401d0003a020000ef
:020000040000fa
:0401d4003a020000eb
:020000040000fa
:0401d8003a020000e7
:020000040000fa
:0401dc003a020000e3
:020000040000fa
:0401e0003a020000df
:020000040000fa
:0401e4003a020000db
:020000040000fa
:0401e8003a020000d7
:020000040000fa
:0401ec003a020000d3
:020000040000fa
:0401f0003a020000cf
:020000040000fa
:0401f4003a020000cb
:020000040000fa
:0401f8003a020000c7
:020000040000fa
:0401fc003a020000c3
:020000040000fa
:100200002f8020000eff27000e0188000000000054
:10021000000020000000e000020032000001200089
:100220002002880014000700940007000000e0008e
:1002300003003a00002720000100200002003700e0
:100240000000200001002000810f7000010032003a
:1002500014000700000020000000e000020032004f
:1002600000000200000000005e020200000000002a
:100270000040da000000fe004440a90020002000f9
:100280000000e00003003200100020009001880010
:100290004440a800000006008a1f78008b1f7800e9
:1002a00000000600a1028800800478000000eb0036
:1002b0001f003700e284440054a0b4009905ba003e
:1002c000e284440054a0b4009906ba00e2844400d9
:1002d00054a0b4000006eb00476fde00fd07b2003b
:1002e000ae018800636ce10003003a00eaff0700fa
:1002f0000000eb000e003700606ce10008003a00df
:10030000004deb000a05e800020039003420ec0043
:100310000af0a0008b05e900f9ff3e000400370059
:100320006168e100010032000086eb000b0007006d
:1003300019c7ba001905ba000e04e00003003a001c
:100340000a00e000dbff3a0000000600fe07b200f2
:10035000ae0288008a047800f5ff37000cd0a300b5
:10036000e20f4d001c00390089027800354dba00bb
:100370000a05e800020039003420ec000af0a00071
:100380008b05e9000f003200254dba000a05e80090
:10039000020039003420ec000af0a0008b05e900cf
:1003a000080032000c00e0000600320015cdba0053
:1003b0000a05e800020039003420ec000af0a00031
:1003c0008b05e9008984e80054a0b4000b00e0002c
:1003d000e2ff3a00000006009902ba00055d7800cd
:1003e0008b05e900f7ff3200c82ade00055d7800c2
:1003f0008b05e900f3ff32000c00e000f1ff320052
:1004000019ddba00eeff370000a0fe003200f80050
:100410003400f800881f780018002000a801880028
:1004200018002000980188004f0478000000fa00ae
:100430008860a90000c8bf000080fb00303388003e
:1004400000c8bf000040400000e8b70000c8bf007f
:100450000004e00002003a0010c0b30000e8b7005a
:100460000080fa003400f9003200f9000080fe003c
:10047000004006000040da000000fe000000050019
:020000040000fa
:100480000000fa009021ef0000012800a00c880075
:1004900000122a00900c880041058000f0ff28001f
:1004a0000080600000c0a000400588008860a900ae
:1004b0009860a8000080fa00000006000400fa001e
:1004c000000f7800110798001000200050338800ba
:1004d0006226ef006626ef00e9ff0700ffff370006
:020000040000fa
:1004e000000800000200000082000000010000007f
:0404f0000000000008
:00000001FF
