:020000040000fa
:080000000001040000000000f3
:020000040000fa
:0400080048020000aa
:020000040000fa
:04000c0048020000a6
:020000040000fa
:0400100048020000a2
:020000040000fa
:04001400480200009e
:020000040000fa
:04001800480200009a
:020000040000fa
:04001c004802000096
:020000040000fa
:040020004802000092
:020000040000fa
:04002400480200008e
:020000040000fa
:04002800480200008a
:020000040000fa
:04002c004802000086
:020000040000fa
:040030004802000082
:020000040000fa
:0400340024020000a2
:020000040000fa
:04003800480200007a
:020000040000fa
:04003c004802000076
:020000040000fa
:040040004802000072
:020000040000fa
:04004400480200006e
:020000040000fa
:04004800480200006a
:020000040000fa
:04004c004802000066
:020000040000fa
:040050004802000062
:020000040000fa
:04005400480200005e
:020000040000fa
:04005800480200005a
:020000040000fa
:04005c004802000056
:020000040000fa
:040060004802000052
:020000040000fa
:04006400480200004e
:020000040000fa
:04006800480200004a
:020000040000fa
:04006c004802000046
:020000040000fa
:040070004802000042
:020000040000fa
:04007400480200003e
:020000040000fa
:04007800480200003a
:020000040000fa
:04007c004802000036
:020000040000fa
:040080004802000032
:020000040000fa
:04008400480200002e
:020000040000fa
:04008800480200002a
:020000040000fa
:04008c004802000026
:020000040000fa
:040090004802000022
:020000040000fa
:04009400480200001e
:020000040000fa
:04009800480200001a
:020000040000fa
:04009c004802000016
:020000040000fa
:0400a0004802000012
:020000040000fa
:0400a400480200000e
:020000040000fa
:0400a800480200000a
:020000040000fa
:0400ac004802000006
:020000040000fa
:0400b0004802000002
:020000040000fa
:0400b40048020000fe
:020000040000fa
:0400b80048020000fa
:020000040000fa
:0400bc0048020000f6
:020000040000fa
:0400c00048020000f2
:020000040000fa
:0400c40048020000ee
:020000040000fa
:0400c80048020000ea
:020000040000fa
:0400cc0048020000e6
:020000040000fa
:0400d00048020000e2
:020000040000fa
:0400d40048020000de
:020000040000fa
:0400d80048020000da
:020000040000fa
:0400dc0048020000d6
:020000040000fa
:0400e00048020000d2
:020000040000fa
:0400e40048020000ce
:020000040000fa
:0400e80048020000ca
:020000040000fa
:0400ec0048020000c6
:020000040000fa
:0400f00048020000c2
:020000040000fa
:0400f40048020000be
:020000040000fa
:0400f80048020000ba
:020000040000fa
:0400fc0048020000b6
:020000040000fa
:0401000048020000b1
:020000040000fa
:0401040048020000ad
:020000040000fa
:0401080048020000a9
:020000040000fa
:04010c0048020000a5
:020000040000fa
:0401100048020000a1
:020000040000fa
:04011400480200009d
:020000040000fa
:040118004802000099
:020000040000fa
:04011c004802000095
:020000040000fa
:040120004802000091
:020000040000fa
:04012400480200008d
:020000040000fa
:040128004802000089
:020000040000fa
:04012c004802000085
:020000040000fa
:040130004802000081
:020000040000fa
:04013400480200007d
:020000040000fa
:040138004802000079
:020000040000fa
:04013c004802000075
:020000040000fa
:040140004802000071
:020000040000fa
:04014400480200006d
:020000040000fa
:040148004802000069
:020000040000fa
:04014c004802000065
:020000040000fa
:040150004802000061
:020000040000fa
:04015400480200005d
:020000040000fa
:040158004802000059
:020000040000fa
:04015c004802000055
:020000040000fa
:040160004802000051
:020000040000fa
:04016400480200004d
:020000040000fa
:040168004802000049
:020000040000fa
:04016c004802000045
:020000040000fa
:040170004802000041
:020000040000fa
:04017400480200003d
:020000040000fa
:040178004802000039
:020000040000fa
:04017c004802000035
:020000040000fa
:040180004802000031
:020000040000fa
:04018400480200002d
:020000040000fa
:040188004802000029
:020000040000fa
:04018c004802000025
:020000040000fa
:040190004802000021
:020000040000fa
:04019400480200001d
:020000040000fa
:040198004802000019
:020000040000fa
:04019c004802000015
:020000040000fa
:0401a0004802000011
:020000040000fa
:0401a400480200000d
:020000040000fa
:0401a8004802000009
:020000040000fa
:0401ac004802000005
:020000040000fa
:0401b0004802000001
:020000040000fa
:0401b40048020000fd
:020000040000fa
:0401b80048020000f9
:020000040000fa
:0401bc0048020000f5
:020000040000fa
:0401c00048020000f1
:020000040000fa
:0401c40048020000ed
:020000040000fa
:0401c80048020000e9
:020000040000fa
:0401cc0048020000e5
:020000040000fa
:0401d00048020000e1
:020000040000fa
:0401d40048020000dd
:020000040000fa
:0401d80048020000d9
:020000040000fa
:0401dc0048020000d5
:020000040000fa
:0401e00048020000d1
:020000040000fa
:0401e40048020000cd
:020000040000fa
:0401e80048020000c9
:020000040000fa
:0401ec0048020000c5
:020000040000fa
:0401f00048020000c1
:020000040000fa
:0401f40048020000bd
:020000040000fa
:0401f80048020000b9
:020000040000fa
:0401fc0048020000b5
:020000040000fa
:10020000cfa420000eff27000e0188000000000090
:10021000000020000000e000020032000001200089
:1002200020028800140007004c0107000000e000d5
:1002300003003a0060112300010020000200370093
:100240000000200001002000810f7000010032003a
:1002500014000700000020000000e000020032004f
:100260000000020000000000ae32020000000000aa
:100270000040da000000fe004440a900600e2000ab
:100280000000e00003003200002020009001880000
:100290004440a800000006008a1f78008b1f7800e9
:1002a00000000600a1028800800478000000eb0036
:1002b0001f003700e284440054a0b4009905ba003e
:1002c000e284440054a0b4009906ba00e2844400d9
:1002d00054a0b4000006eb00476fde00fd07b2003b
:1002e000ae018800636ce10003003a00eaff0700fa
:1002f0000000eb000e003700606ce10008003a00df
:10030000004deb000a05e800020039003420ec0043
:100310000af0a0008b05e900f9ff3e000400370059
:100320006168e100010032000086eb000b0007006d
:1003300019c7ba001905ba000e04e00003003a001c
:100340000a00e000dbff3a0000000600fe07b200f2
:10035000ae0288008a047800f5ff37000cd0a300b5
:10036000e20f4d001c00390089027800354dba00bb
:100370000a05e800020039003420ec000af0a00071
:100380008b05e9000f003200254dba000a05e80090
:10039000020039003420ec000af0a0008b05e900cf
:1003a000080032000c00e0000600320015cdba0053
:1003b0000a05e800020039003420ec000af0a00031
:1003c0008b05e9008984e80054a0b4000b00e0002c
:1003d000e2ff3a00000006009902ba00055d7800cd
:1003e0008b05e900f7ff3200c82ade00055d7800c2
:1003f0008b05e900f3ff32000c00e000f1ff320052
:1004000019ddba00eeff3700c81504000000000037
:100410006608040000000000da220400000000006a
:1004200022080400000000002a230400000000004d
:10043000462204000000000000000400000000004c
:10044000660804000000000000a0fe003200f80072
:100450003400f800881f780018002000a8018800e8
:1004600008202000980188004f0478000000fa005e
:1004700010002000404088008860a9000080fa0039
:100480003400f9003200f9000080fe000040060050
:100490000040da000000fe000a00fa000000e00060
:1004a00037003a0043528000e18f510003003200d0
:1004b000e28f51000e003a00090037008039200019
:1004c0000000e00001003a000040da009803e2007a
:1004d0000b003500a023ef0099e3a80008003700c7
:1004e000e03a20000000e00001003a000040da009d
:1004f000ae03e20002003500b623ef00afe3a80030
:10050000020078001a003700040a2000e18f510031
:100510000b003a00030037000402e90002003a0031
:1005200003003700040a20009a03ab00faff3200f0
:10053000d41c8000050037000402e90002003200ec
:10054000b003ab00fcff3200841d8000610262003a
:1005500009003200e18f510002003a00f41c8000d3
:1005600001003700a41d8000845878000000e900d5
:100570000000e000e4ff3a000000510008003700ee
:1005800023002000b3bf9f00c0bf9f00d1bf9f00ca
:10059000e2bf9f006a8057006c1107006fb8970098
:1005a0000080fa00000006000a00fa001100200096
:1005b000b1bf9f00c0bf9f006a8057006511070050
:1005c0004fb897000080fa00000006000a00fa0009
:1005d000e20f500034003e0040528000e10f500016
:1005e00003003200e20f500011003a000c00370007
:1005f000833920000300e00001003a000040da00e7
:100600009803e20002003500a023ef0099e3a80060
:100610009b43ab000d003a009b43a8000b00370042
:10062000e33a20000300e00001003a000040da0055
:10063000ae03e20002003500b623ef00afe3a800ee
:10064000b143ab0001003a00b143a8008201780039
:100650000b0037003102fb00e10f500004003a00ac
:100660009b23ab00feff3a00e41c88000300370028
:10067000b123ab00feff3a00941d88008301e9001e
:100680000300e000f3ff3a00e10f500003003a00de
:100690009b03ab00feff32000b003700b103ab0041
:1006a000feff32000800370033002000b3bf9f0078
:1006b000c0bf9f00d1bf9f00e2bf9f006a8057006c
:1006c000261107006fb99700020078000080fa0039
:1006d00000000600889fbe00800478005052800011
:1006e0000000e00005003a000000eb000e000700eb
:1006f0000084eb000000e000080035005852800044
:100700000900e0000500320009004400060007006f
:100710000000e00001003d000084eb0008007800cc
:100720004f04be0000000600800078000100e000d9
:1007300003003a000000200050528800000005002d
:100740000080eb0002002000828f500002003e007b
:10075000515288000000eb00000006000000050078
:100760000000fa0068815700cfb8970031020700f7
:100770000080fa000000060055000700ad000700e9
:100780005e01070086010700df000700ad020700d9
:10079000580237000000fa0068815700cfb8970070
:1007a000290207000080fa0000000600cf040700bd
:1007b000860507002006070036060700d905370022
:1007c0008001780002003700b15978000201e90089
:1007d0000200e000fcff3a0000000600414b8000f0
:1007e0009100780068090700110020000000e00077
:1007f00005003500404b800090007800a0002000ec
:100800004b0a0700cf00de000100ea0000000600ee
:1008100000000600e096200000000600cf0f070051
:10082000604b8800504b880000000600889fbe0087
:100830000004be00080078000d000700000044001e
:100840008900780003000700080078004f04be000c
:1008500000000600881f7800000478000800780077
:10086000f10a0700080078004f0478000000060035
:1008700080007800040037003104e00002003a00f4
:100880000000510000000600010178000108a300eb
:10089000f9ff3a008101780031017800f4ef2f0070
:1008a000020242000281ea000201620004082800fc
:1008b00004016100f7ff3200830078000101780035
:1008c0003104e000fdff3a00000051000000060086
:1008d000ec874700889fbe008a9fbe008c9fbe00a9
:1008e0008e1f780000067800010478001807900039
:1008f0002805900098067800cdb79f00b8059000b5
:100900003202be002203be000400be000601be008b
:100910004f18de006011b8008000eb00d0b79f00d8
:10092000e1b79f00f2b79f0083bf9f00800478006b
:100930000900e000060032006000b8006011b80055
:10094000040250008582580006035900878359002d
:100950000e00e000020035000d10a100cdb79f0091
:100960000900e00005003a004fb097000028a300fe
:1009700002003a000038a300020032008a00e900b9
:10098000010037008a007800f8815700a20020009b
:1009900008007800860007000900e00003003a0024
:1009a000cfb097000128a300080032000000e90042
:1009b00000814500b1c2b3000900e000010032002f
:1009c000d1c2b30001497800050037000138a30007
:1009d000030032000000e90001c2b3008175780015
:1009e000480190000201e9000001510080804500ab
:1009f0004fb297008a0178000c0078005c02070073
:100a00009c0090000188a300040032009800900030
:100a1000810f500001003d00010078004f07780071
:100a20004f06be004f05be004f04be00cf00b10010
:100a3000000006000200fa00889fbe008a9fbe00e8
:100a40008005780001047800020078001801900009
:100a50002805900098007800b1bf9f00b80490006e
:100a60000200e000020035000110a100b1bf9f00ac
:100a7000ea815700820020008a0078003002be0020
:100a80002003be0008007800490007003fb9970026
:100a9000f0006100030032000000e90001c3b30070
:100aa000817478003fb99700e800610003003200cc
:100ab0000000e90001c2b300817478004801900091
:100ac0000201e90000015100808044003fba970014
:100ad0008a0178000b007800250207009b00900037
:100ae0000188a3000400320098009000810f50009c
:100af00001003d00010078004f05be004f04be001c
:100b00000080fa0000000600ea874700889fbe00c8
:100b10008a9fbe008e1f78000004780003007800d2
:100b20007287570084e2260055c72600049fbe0046
:100b3000c3962200030f78006c875700004feb002c
:100b400011059000a1049000910578000200e000da
:100b50000200320002077800010037007287570058
:100b60000000e00002003a000e00780040ff07009d
:100b70000a00e000030035008a0f50000100360033
:100b80000a0078000b0278008901780000017800e3
:100b90008e00780008007800f50107004f07780004
:100ba0004f05be004f04be00af00b10000000600bc
:100bb000f4874700889fbe008a9fbe008c9fbe00be
:100bc0008e1f78000605be000404be0081bf9f0092
:100bd00082b79f00f3b79f00b0009000e1b79f007d
:100be0001301780092b79f0090069000400090009b
:100bf0000000e900000678000d00e00001003d0063
:100c00001d0020008040eb00efb19700817178005b
:100c10001e0020001f0037000c06e9000fb09700ef
:100c2000cf80de006109b900a0b79f00b1b79f0077
:100c3000c2b79f00d3b79f000203be000002be00f0
:100c40000800be000a01be00cb10070000077800b4
:100c50000e4078000043b000efb0970080707e0037
:100c60008d06e9000fb997000201e90082bf9f00dd
:100c70002fb29700bfb297004fb39700dfb3970032
:100c80000800be000a01be00b41007000205be0045
:100c90000004be000c00e0000d003400e00f540022
:100ca000e08f5c00e00f5d00e08f5d00daff3a004e
:100cb0000d00e000d8ff3c008fb997000300e00072
:100cc000030034001fb097000018a300d2ff3a00c1
:100cd0000e00e00002003a00ffb097001140a100b2
:100ce0000c0078004f0778004f06be004f05be008d
:100cf0004f04be004f01b100000006000200fa00e0
:100d0000889fbe008a9fbe0000057800010478001d
:100d10000200780018019000a80490009800780064
:100d2000b1bf9f00b80590000200e000020035004e
:100d30000110a100b1bf9f00ea815700a20020006e
:100d4000890078003002be002003be000800780051
:100d500097ff0700480190000201e90000015100df
:100d6000808045003fba9700890178000a0078002a
:100d70007f0107009a0090000188a3000400320060
:100d800098009000810f500001003d0001007800a4
:100d90004f05be004f04be000080fa0000000600b0
:100da000fa874700889fbe008a9fbe008c9fbe00c6
:100db0008e1f780080047800010478008205780096
:100dc000180190002805900018077800b8009000de
:100dd0000200e000020035000e10a1000100370003
:100de0001200200070006700e0b79f000900320089
:100df0003b02be002b03be00e00f5200e08f5a0002
:100e0000e00f5b00e08f5b00020032008a86e900a1
:100e1000010037008a067800e8026700f5b79f00f6
:100e2000010032008d06e9003b02be002b03be002c
:100e3000e4af9f00f5af9f0086b79f0097b79f0074
:100e4000480690000c06e9000040eb0080707e0030
:100e5000efb297007fb29700890378008104780091
:100e6000d8af9f00020478008bbf9f008a057800ee
:100e7000034578002a0037000c06e9006fab9700a5
:100e80006f006300e90f500002003c000003b00057
:100e9000010037007005b0000a03fb001604b10022
:100ea000f90f53000c003e00000378000650a0002c
:100eb0001606b100f90f530007003e00b4b79f00bb
:100ec000a5b79f00c7b79f00c3090700cfb397001e
:100ed000afb297003fb2970080747e000804e9002b
:100ee0008d06e9006fa89700ffa897000fb1970043
:100ef0009fb19700460020008301d1000281d300fa
:100f00008180d3000080d3000603e900faff3a0095
:100f1000e0af9f00f1af9f0082b79f0093b79f00a3
:100f2000e10f56000f0034006fa89700ffa897004c
:100f30000fb197009fb19700e00f5000e08f58006d
:100f4000e00f5900e08f5900cbff3a000800e000a5
:100f5000c9ff3c000d00e000020034000e18a300a1
:100f6000c5ff3a0089007800f4b79f008704780035
:100f70005fac97008a4178000b0578008fbd970021
:100f80000500e000100032003b02be002b03be0053
:100f9000e4af9f00f5af9f0086b79f0097b79f0013
:100fa000e00f5200e08f5a00e00f5b00e08f5b0023
:100fb000050032000c06e90083707e000c06e90093
:100fc00000c3b30080707e00ffb297000500e00010
:100fd000030032000c06e90000c2b30080707e00fe
:100fe000480190000201e9000c0151008c80400092
:100ff0000e0278008a01780009007800dc00070002
:10100000990090000188a30004003200980090002d
:10101000810f500001003d00010078004f0778006b
:101020004f06be004f05be004f04be00af01b10029
:10103000000006008201780001017800f1ff27001e
:101040007e093700fe0637003c00fa008f01780069
:10105000c303b1001d0009008019eb00c0a79f0069
:1010600080b79f0020822000b0b79f0040fc2f0077
:101070000f004000630907000080fa00000006002e
:10108000889fbe0000047800480090008204780029
:10109000808f540001003600800478000901780038
:1010a00058009000c6fd070058009000090040005d
:1010b00050049800c80090008984500049049800aa
:1010c0000048eb004f04be0000000600100078004e
:1010d0003efd3700900190000388a300010032001c
:1010e000e7ff37000348a30001003a00500e070055
:1010f0000000060084082000848f50001d0032008c
:101100000d003c0014082000848f5000270032009e
:1011100002003c00040820000400370024082000de
:10112000848f50003400320044082000848f500027
:1011300043003a0036003700040a2000848f500034
:101140002700320004003c0004092000848f500076
:101150003b003a0028003700020c2000828f50002c
:101160002f003200020f2000828f500034003a001e
:101170002b0037009380e9000200e00005003200f8
:10118000810978001102fb00cfa2de00612bb900bb
:101190002800370081097800114278000482fb00a2
:1011a0008002eb006033b8002200370013027800a1
:1011b000e40052000200e0000500320081097800de
:1011c0001102be004fabde00860378001900370025
:1011d000810978001102be006033b80015003700a5
:1011e0009380e9008109780011027800cfa2de0027
:1011f000612bb9000f00370093027800e88052009d
:10120000810978003102be002103be0009003700c9
:101210009380e9000200e00002003200f1ff370095
:101220009380e90081097800110278008002eb00c8
:101230006033b8000498be000690be0010000500a0
:101240000000050044082000848f50002500320073
:1012500008003c0014082000848f50001400320065
:1012600024082000848f500024003200040820004d
:101270000c00370004092000848f50001f0032004a
:1012800004003c0084082000848f500024003a00b1
:101290000e003700040a2000848f50001100320035
:1012a000040c2000848f50001d003a000d00370010
:1012b0009380e900810978009100780001087800a6
:1012c000cf91de008288be00140037009380e900d1
:1012d0008109780091007800010878008248780040
:1012e0000e0037009380e9008109780091007800b2
:1012f0000108780082087800080037009380e90030
:101300008109780091007800010878006112b90025
:10131000612bb9008498be008690be0010000500c5
:1013200000000500889fbe0000047800480090007f
:1013300082047800808f5400010036008004780019
:1013400009017800580090001dfd0700580090002a
:101350000900400050049800c800900089845000a3
:10136000490498000048eb004f04be00000006004e
:10137000f2874700889fbe008a9fbe008c9fbe00f8
:101380008e1f780080047800010578000204780040
:10139000830578006107620002003a008b0f540059
:1013a00008003900080178008a00780009007800f8
:1013b00048ff07008b0f54000200390088057800b1
:1013c0001e003700088655000c017800f00f56000b
:1013d0000100360002012000010220007e8057003b
:1013e000d80607008c0678000500370002012000af
:1013f000fe8057000900780036ff0700f08656008f
:10140000ef8f5600f9ff3e004461de0000ff2f0021
:101410000091b90002014600fe80570009007800e3
:101420002cff07000e00e00004003a0008017800dd
:101430008a0078000900780026ff07000b0078007a
:101440004f0778004f06be004f05be004f04be0098
:101450002f01b1000000060000000500000005009b
:1014600000000500000178000040eb008080fb00d8
:1014700081804000a3a2200063c278000404e00041
:1014800003003a00b0a2200060c07800000006000f
:1014900092017800934f520004003a00b0a220005d
:1014a00060c078000309e800010037000040e80050
:1014b000ea4f5000edff360000000600f6874700b7
:1014c000889fbe008a9fbe008c9fbe008e1f780042
:1014d0000005780001047800830578000406780090
:1014e0000000eb00c0b79f008080eb00d1b79f00e9
:1014f000e0b79f00f2b79f000008200080bf9f0068
:1015000098007800010078008004eb0001003700ab
:101510008904e800304178000204e0000300320052
:1015200053c2b300834f5100f9ff3a000900e000b5
:1015300004003200090178000a007800e5fe070087
:10154000188c44001807780050c2b3009e4f10005a
:101550003f013a000e07e8000e0c7800100037003b
:10156000cfb097000100a0000b003700cfb097006c
:101570000110a00008003700cfb097000120a000a4
:1015800005003700cfb097000130a00002003700ff
:10159000cfb097000140a000c1b79f00000ce80049
:1015a0001800780090407800b2c2b30082cf50009b
:1015b000f1ff320007003c0002c2b30082cf5000ae
:1015c000f0ff320032c2b30082cf500007003a0071
:1015d000efff3700d2c2b30082cf5000e0ff3200ed
:1015e00002c3b30082cf5000e0ff3200a2c2b300ba
:1015f00082cf50000d003a00000ce8001c80e9008a
:10160000000e780010007800e0b79f000000e000b6
:101610000f003d00cfb097000100a200c1b79f00ae
:101620000000ea00e0b79f0009003700b00507009e
:10163000e0b79f0001003700000ce80018007800b8
:101640009000fb000103b100e98f5000faff360063
:101650004fb097000008a300020032000010a10064
:10166000c0b79f0018007800e1c2b30090cf10000f
:1016700016003a008000eb00d1b79f000000e800a0
:10168000000c7800a1c2b30090cf100006003a0011
:10169000000ce8001c80e900000e780010007800c3
:1016a000d0b79f000900370091050700d0b79f0011
:1016b00001003700000ce800180078009000fb00e3
:1016c0000103b100e98f5000faff360008007800ee
:1016d00064ff070080467800180078001000fb00c7
:1016e000b607070091062000810f50003800320035
:1016f00012003c0041062000810f500034003200ef
:101700000a003c0011062000810f5000200032002a
:1017100031062000810f5000a0003200510220004d
:10172000810f5000bc003a00b40037007106200061
:10173000810f5000b8003c008800370001072000ee
:10174000810f50005c00320007003c00e1062000e1
:10175000810f50007a003200f1062000810f500006
:10176000ad003a003900370051072000810f5000ca
:101770002700320081072000810f50004200320014
:1017800031072000810f5000a3003a008f0037007e
:101790008d80fb000c01780000fe2f000f00400040
:1017a000cb0707000000e000a80032001800780016
:1017b000000ce8009041780002fe2f000f0141006c
:1017c000f88057000a00780024ff07000e00370059
:1017d0008d80fb008c0178001200200000fe2f009d
:1017e0000f00400043fe07000000e00097003200b9
:1017f000180ce80002fe2f000f014100f88057008e
:101800000a00780032fc0700808444009000370012
:101810008d80fb008c0178000001eb0000fe2f00a2
:101820000f00400033fe07000000e0008700320098
:10183000180ce80002fe2f000f014100f88057004d
:101840000a0078002dfd0700efff37008d80fb00b8
:101850008c0178000001eb0000fe2f000f0040001b
:1018600024fe07000000e00078003200180ce800b9
:1018700002fe2f000f014100f88057000a00780097
:101880006cfc0700e0ff37008d80fb008c017800c6
:101890000001eb0000fe2f000f00400015fe0700c6
:1018a0000000e0006900320018007800000ce80039
:1018b000904178001c0037008c0178000001eb009b
:1018c000010f200000fe2f000f00400009fe07005e
:1018d0000000e0005d003200180ce8000fb0970037
:1018e0009fb097002fb19700bfb19700e00f500055
:1018f000e08f5800e00f5900e08f590009003a00ce
:10190000cfb597006fb4970020a22000d8fb070046
:101910000b027800880178000001780021a22000e5
:101920004700370083c7b30002fe2f000f014100bc
:10193000f88057000a00780019fd0700b2ff370051
:101940000b8144008d80fb008c01780000fe2f008d
:101950000f0040003bfe07003c0037008d80fb007d
:101960000c01780000fe2f000f0040005807070010
:101970000000e0003500320018007800000ce8009c
:101980009041780002fe2f000f014100f8805700bf
:101990000a007800b1fe07009bff370000c8b300c3
:1019a00080cf560029003a00180ce8001c80e9009e
:1019b000000e780010407800e0df9f001300200048
:1019c000e2fd2f000f0141000800370000c8b300fe
:1019d00080cf56001d003a00180ce8001c80e9007a
:1019e000000e78008001eb0010017800f8805700ad
:1019f0000a00780044fc070083ff370000c8b300ea
:101a000080cf560011003a00180ce8004fb2970042
:101a1000efb19700080037000e0c78000000eb00d3
:101a2000c0b79f00e0b79f000080eb00d0b79f00d9
:101a30000002eb00840178001200200081a2200047
:101a40000a0078004afe07006fff3700180ce80014
:101a5000090078004f0778004f06be004f05be0012
:101a60004f04be006f01b100000006008200fa00c2
:101a7000889fbe008a1f78000005780082047800e5
:101a8000c13f9f000004eb001000370009027800fe
:101a900088017800a2f72f000f01410081f72f0085
:101aa0008f8040000a00780084fe07000800400094
:101ab000880f500004003d00b00420002052880030
:101ac0000084eb0004003700000478004f389700d2
:101ad0001004e000edff3a00080078004f057800a0
:101ae0004f04be000080fa00000006000200fa0069
:101af000889fbe008104780082007800030178008e
:101b00003104900069070700e10f40000b0032002c
:101b1000a2002000e6805700080078008f0607002a
:101b2000809cbe008294be0010002000dfb89700a9
:101b3000810f540001003a00e0ff2f004f04be0067
:101b40000080fa0000000600ea874700889fbe0078
:101b50008a9fbe008c9fbe008e1f78000004780014
:101b60000105780083bf9f00a2059000420090000d
:101b7000e0b79f00b204900083007800110678005f
:101b800008007800bb0107008fb897008c08400060
:101b90000b00e00004003a006fb097000000e9007d
:101ba000f0b79f0001003700fbb79f00ad00200099
:101bb0000007eb001b00370078089000b810900079
:101bc000810f500003003100b085fb00700c9800bd
:101bd00008003700080078007b05070080057800c2
:101be000e18f450003003a000c00e0005c003c007f
:101bf0006f0037000c00e0000c003a00b00220003b
:101c0000808f550003003200d0022000808f5500e5
:101c100006003a008b4c78008fb897009108e800d6
:101c20001e0020000e067800460037008e0f56007a
:101c300029003a000c07e800ea8f560004003a0039
:101c400000032000808f550022003a001f0037005b
:101c5000e88f56001f003a008b0078000150a0006a
:101c600080072000808f50001a003a00f80890008a
:101c700038109000808f5000030031003180fb004d
:101c8000710c980002003700080078004e0507002c
:101c9000b81090000100e00003003200f808900046
:101ca0008100e900710c9800630407000000e00067
:101cb000130032008b747e000fb897001008e80004
:101cc0000e0678000d0120001e0037008d00200058
:101cd000010037000007eb0000fd2f000b00400063
:101ce000e90f50000d003600f08f560004003a0056
:101cf0000b007800500407000000e0000d003a00df
:101d0000381090000000e0001500320078089000c4
:101d10000000e900700c980011003700e88f5600b1
:101d200004003a0070032000808f55000100340049
:101d3000ad0020008b747e000c06e8008fb8970081
:101d40009108e8007fb09700800f560004003d0026
:101d5000efb097000100e900800f560096ff3500b4
:101d60000040eb0080747e00ea8f560005003a00c8
:101d70000d017800f680570009007800f70507008c
:101d8000040037000d017800f68057000900780044
:101d9000ee050700009dbe000295be001b0020005e
:101da0005fb09700808f540001003a00ebff2f00d6
:101db0000b0078004f0778004f06be004f05be00ad
:101dc0004f04be00af00b10000000600e6874700e8
:101dd000889fbe008a9fbe008c9fbe008e1f780029
:101de00000047800010578000306780022079000bf
:101df0004200900080bf9f00b20490009c057800d4
:101e0000080078001b0107000b0e40000e00e000e8
:101e100002003a008fb897000107e90089067800b0
:101e20008005eb001c003700f80890003810900087
:101e3000808f5000030031003180fb00710c98004e
:101e40000700370008007800df040700e10f4000ba
:101e500003003a000b00e00015003c0021003700b1
:101e600001fd2f0080804000e78f50000700360002
:101e7000381090000000e0000d003200780890005b
:101e80000000e900700c980009003700805e7800bf
:101e90008b05e8001c0ee8008e8f550004003d0005
:101ea0008fb897000100e900808f5500deff3500f4
:101eb0000040eb0080f47d0082002000f28057009b
:101ec00009007800a1050700009dbe000295be0034
:101ed00010002000ffb09700818f540001003a00ed
:101ee000e0ff2f004f0778004f06be004f05be00f1
:101ef0004f04be006f00b1000000060080007800b3
:101f00001000200002022000828f500004003200e6
:101f1000e9805000e48f5000010036000000eb0023
:101f200000000600889fbe008a9fbe008c9fbe00f6
:101f30008e1f78000004be000205be0084067800f3
:101f40000a00e000040032001b0678000800780058
:101f5000c80007008c0d4000290790008004eb00aa
:101f60002100370078089000b8109000810f5000d1
:101f7000030031003086fb00700c98000800370029
:101f8000080078009004070000067800e10f460082
:101f900003003a000900e00017003a002000370073
:101fa0000a00e0000b0032000c007800d3ff0700ad
:101fb0000000e00007003200381090000000e00050
:101fc0000d003200780890000000e900700c9800c5
:101fd000090037000d00e000010032008cf67c00a3
:101fe0008904e8009b0de8000e00e000ddff3200f0
:101ff0008e8f5400dbff35000d00e000040032003e
:102000000a00e000020032000040eb0080f67c0095
:1020100009f0a7008904ea000906ea004f66de001d
:102020000c0078004f0778004f06be004f05be0039
:102030004f04be00000006000200fa00889fbe00a8
:102040008104780082007800030178003104900058
:1020500016060700e10f40000b003200a20020002e
:10206000e68057000800780038050700809cbe0015
:102070008294be0010002000dfb89700810f54004a
:1020800001003a00e0ff2f004f04be000080fa007c
:1020900000000600e8874700889fbe008a9fbe00b8
:1020a0008c9fbe008e1f7800000478000105780028
:1020b00083067800a205900042009000f0b79f00d0
:1020c000b20490001d06780008007800690007003f
:1020d0008c0e40000b00e00004003a00ffb09700b7
:1020e0008100e90081bf9f00010037008bbf9f0086
:1020f000090778000006eb003900370078089000e7
:10210000b8109000810f500003003100b085fb0033
:10211000700c980008003700080078002a040700b7
:1021200080057800e18f450003003a000c00e000d4
:1021300032003c003e0037000b0078003e030700f1
:102140000000e00023003a00e10f56001a003a00b8
:102150000b0078001905070081072000810f50004f
:1021600015003a0000c3b300994f100012003a0066
:10217000f808900038109000808f50000300310064
:102180003180fb00710c98000200370008007800d5
:102190000d040700b81090000100e00003003200b9
:1021a000f80890008100e900710c980022030700f4
:1021b0000000e00007003a00381090000000e00046
:1021c0000e003200780890000000e900700c9800c2
:1021d0000a0037000b5f78000c06e8009d0ee8004f
:1021e0000fb89700800f560004003d00ffb0970025
:1021f0000100e900800f5600c0ff35000040eb00f1
:1022000080747e0002012000f480570009007800ed
:10221000ce040700009dbe000295be001b002000fa
:102220006fb09700808f540001003a00ebff2f0041
:102230000b0078004f0778004f06be004f05be0028
:102240004f04be008f00b10000000600800078003f
:102250001000200002022000828f50000400320093
:10226000e9805000e48f5000010036000000eb00d0
:1022700000000600889fbe00000478008004eb0088
:102280000b003700f1ff07000000e00007003a00f4
:10229000381090000000e000100032007808900034
:1022a0000000e900700c98000c0037008904e80079
:1022b000f808900038109000808f50000300310023
:1022c0003180fb00710c9800eeff370008007800a9
:1022d000bd030700e10f4000eaff3a000900780063
:1022e0004f04be0000000600889fbe008a1f7800d1
:1022f0000004be00190078001000fb00d3ff0700a7
:102300000005eb000000e000090032000800780042
:10231000d8ff0700000578001900e800800c78005d
:102320001000fb00c9ff07000000e000faff3a00c0
:102330000a0078004f0578004f04be000000060038
:102340001801fa00889fbe008a9fbe008c9fbe00c5
:102350000005780001047800830578000406780001
:1023600068004700040009000018eb00720798009d
:1023700000082000000f9800880078000a0078000c
:10238000d9ff070080067800190037007a0890000e
:10239000ba109000810f500003003100b084fb00a0
:1023a000700d9800050037000a00780086030700ca
:1023b00080047800e18f44000700320018007800a4
:1023c0001000fb00808f5400030032003a10900090
:1023d000e9ff2f00110137009b0de800180ce80001
:1023e000880078000a007800bfff0700808646005a
:1023f00018007800904078000104e00003003200eb
:1024000052c2b30082cf5000e0ff3a009b8d4600dd
:1024100051c2b30090cf10008f013a000000e800d5
:10242000000c78008000eb006107980081067800be
:10243000a1c2b30090cf100002003a00000ce800e7
:102440001d0020001800780029020700600798008e
:102450006102b900612bb9000a007800350307005a
:1024600001003700000ce800180078009000fb0025
:102470000103b100e98f5000faff36000800780030
:10248000f8fb070040579a00180078001000fb0086
:102490004a04070091062000810f50003a003200e4
:1024a00015003c0031062000810f5000a2003200d0
:1024b0000a003c00b1052000810f5000dd00320011
:1024c00011062000810f50008900320051022000c7
:1024d000810f50005f013a00bb0037004106200029
:1024e000810f50001900320071062000810f50004a
:1024f00058013c007e00370001072000810f50008a
:102500005b00320007003c00e1062000810f500014
:1025100067003200f1062000810f50004d013a00a3
:102520003300370051072000810f50002a0032008d
:1025300081072000810f50003e003200310720004b
:10254000810f500043013a008e0037008b01780064
:10255000680147008e0078000a00780063fd0700dc
:10256000800478000900e0003e013500180ce80006
:102570008004eb000d00e0003a013a004e51920059
:102580008280fb000e0037008b0178006801470055
:102590008e0078000a0078006bfd07008004780048
:1025a0000900e0002f013500180ce8008004eb0062
:1025b0000d00e0002b013a004e5092008080fb009d
:1025c0008c017800120020000e0078007e040700c5
:1025d00080047800230137008b01780068014700f0
:1025e0008e0078000a00780093fe0700160037007e
:1025f0008b017800680147008e0078000a0078009f
:10260000f2fd0700800478000900e00015013500a4
:10261000180ce8008004eb000d00e00011013a0006
:102620004e5092008080fb008c01780009017800f8
:10263000e5ff37008b017800680147008e007800c5
:102640000a00780093fe0700800478000900e0008b
:1026500004013500180ce8008004eb000d00e000d8
:1026600000013a004e5192008280fb00eeff3700dd
:102670008b017800680147008e0078000a0078001e
:1026800084fe0700800478000900e000f5003500b2
:10269000180ce8008004eb000d00e000f1003a00a7
:1026a0008c01780009017800010f2000c6ff370077
:1026b000180ce8001b007800cf80de006109b9002b
:1026c000009fbe000297be008004eb000d00e000fa
:1026d000e4003a004e5092008080fb008c017800ac
:1026e000090178000e00780037040700dd0037008c
:1026f0008b017800680147008e0078000a0078009e
:10270000de000700800478000900e000d5003500f5
:10271000180ce8008004eb000d00e000d1003a0046
:102720004e5192008280fb000c0178000e00780070
:1027300006040700a6ff370000c8b300ce50920081
:1027400080cf5000c3003a006e0090000000e0000f
:1027500002003a001000200060079800180ce80002
:102760000002eb000d00e00003003a001c80e900cd
:10277000000e7800100278008b0178000001eb0059
:102780000d00370000c8b3004e519200804f510039
:10279000b0003a00180ce8000002eb000d00e00069
:1027a00003003a001c80e900000e78001002780057
:1027b0008b01780012002000e80047000a00780032
:1027c000d8fd070082ff370000c8b300ce5092004a
:1027d00080cf50009f003a00180ce800fa089000e3
:1027e0003a109000808f5000030031003180fb00d0
:1027f000710d9800020037000a007800720207008d
:1028000051022000810f500002003a009b0de800a9
:10281000930037003a1090008004eb000000e000c5
:10282000900032007a0890000000e900700d9800d6
:102830008c00370000c8b3004e519200804f510009
:1028400084003a000002eb000d00e00003003a00b3
:102850001c80e900000e7800100278001800e800e3
:10286000000c78008004eb00e1c5b30090cf1000ad
:1028700002003a00000ce8001900200012102000ad
:102880008900780072004700340f9900ad010700fd
:102890000040eb0020579800180078009040780026
:1028a000d2c2b3003e0a910082cf500005003a0028
:1028b000000ce80010c0b3000940500000c79800a9
:1028c00028003700d2c5b30082cf500025003a005f
:1028d000000ce80010c0b3000940500000f7980059
:1028e000200037000004e00023003200d3c2b30010
:1028f000834f500014003a001800900010407800f8
:102900000004e00010003200814f50000e00320041
:102910000201e800020c780078b897001000fb0074
:10292000f2004700008040000200370011c0b300f1
:1029300009e85000f2014700830150009200fb00bb
:10294000818f5100f9ff3500180078009000fb00de
:102950008100470012c0b30009415100b2509800f5
:10296000000ce8001801780012407800d1c5b300cf
:10297000814f5000dbff3a000400e00018003200f5
:10298000840678000006eb0003003700895e7800bb
:102990000c06e8009b0de8007a089000ba10900041
:1029a000810f500003003100b084fb00700d9800cf
:1029b000050037000a007800340f99000202070072
:1029c000800478003e0a91000900470030509000d2
:1029d0000004e000edff3a00120037009b0de80014
:1029e0007a089000ba109000810f50000300310067
:1029f000b084fb00700d9800050037000a007800d5
:102a0000340f9900f0010700800478003e0a91001d
:102a100009004700305090000004e000efff3a004a
:102a20000006eb003a1090000000e00003003200c6
:102a30007a0890000000e900700d98000c00e0009a
:102a4000040032000400e000020032000040eb000d
:102a500000727e00180ce800e18f44000100320093
:102a60008004eb00090078004f06be004f05be0051
:102a70004f04be000080fa000000060000000500c0
:102a8000000005008400fa00889fbe008a1f7800bd
:102a90000005780082047800b13f9f000000eb0041
:102aa000c03f9f00000478000d0037000902780045
:102ab00083f72f008f814100a2f72f000f01410003
:102ac00061f72f008f8040000a0078001cfe07008d
:102ad000800178000300e000040035000304440096
:102ae0003f3897001004e000f0ff3a00e18f41000a
:102af00003003a000800e00001003a0003047800f7
:102b0000080078004f0578004f04be000080fa00ee
:102b100000000600889fbe000004be000000eb001d
:102b20000800e00018003200180090000058a300d0
:102b30000d003200d800900068009000808f500097
:102b400009003600b80990000001eb00820078000f
:102b50000800780003000100d80090000080eb001e
:102b60000100e000080032000000eb00200c98009b
:102b700060049800500498000900e0000200320050
:102b80001800780088f607004f04be000000060019
:102b9000889fbe000004be000000eb000800e000bb
:102ba00025003200180090000058a30011003200e8
:102bb000d800900068009000808f50000900360017
:102bc000b80990000001eb0082007800080078004e
:102bd00003000100d80090000080eb000100e0003d
:102be000150032000000eb00200c980060049800f3
:102bf00050049800780a900008109000800f52004e
:102c0000060031000002520011002000cfa2de00b9
:102c1000612bb90018007800940007000000eb0059
:102c200000149800700c98000900e00002003200c7
:102c3000180078005cf607004f04be000000060094
:102c4000889fbe008a9fbe008c9fbe0080057800d2
:102c50008106780002067800eb0c90000810200036
:102c60000c044400080178008000eb0009007800a3
:102c7000840007000000e000010032000904500059
:102c8000080578008c0f5400010036000c05780010
:102c90000a017800890078000d007800c8f6070066
:102ca0000a804400f00d98000884440088159800bc
:102cb000e80d98000a0078004f06be004f05be00e0
:102cc0004f04be00000006008000780010002000c5
:102cd00002022000828f500004003200e980500080
:102ce000e48f5000010036000000eb0000000600f9
:102cf000889fbe008a1f7800000578000a047800cb
:102d0000984478000805e8000900fb00eeff070082
:102d10000000e000f9ff3a00b0c2b30080cf5400d9
:102d200005003200d0c2b3008000eb0080cf540019
:102d300005003a00020037008000eb000100370078
:102d4000110020000804e8000000eb000300370039
:102d50006a02b900020052000003b0003801fb0013
:102d600003fd2f0082814100e98f5100f8ff3600fa
:102d70000100e00001003a000000ea004f05780081
:102d80004f04be0000000600889fbe008a1f780026
:102d9000800478000105780009007800b4f6070087
:102da000000478008a0178000801780011002000f2
:102db000090078000a000700800078000080eb001e
:102dc000888f500001003a000000eb004f057800aa
:102dd0004f04be000000060010007800fbf537002d
:102de000889fbe008a9fbe0081047800020478009c
:102df00009c5b9000900e00001003a000004eb0039
:102e00000a017800800078000300780008070700b6
:102e1000800078008a8f5000030032001100090002
:102e20008980d80000047800080078004f05be00b3
:102e30004f04be00000006008000780002fd2f0055
:102e40000101410010002000e90f5100050036008b
:102e50000150a0001106b100e58f500001003600be
:102e60000000eb0000000600f3ff3700a0fd2f007c
:102e7000f1ff2f00c70107004f89de0082017800b3
:102e8000000006008180fb00010037000201e9001c
:102e9000800178000008a300060032000200e00074
:102ea000230032003082fb00810f5200f7ff3a000e
:102eb000030037000000eb000200e0001e003200bb
:102ec0001380fb00810f50001c0032001410200002
:102ed000048ab90084027800010037000281e90009
:102ee00003007800e10f51000a00360033826a00c7
:102ef000f6ef2f00040343000482ea00040263009b
:102f00000608280006026200f4ff320001003700c4
:102f10000201e900800178000200e00005003200b3
:102f20003082fb00810f5200f9ff3a0003003700a6
:102f3000000005000000eb00000006000300780020
:102f400000000600889fbe008a9fbe0080047800b3
:102f50000200e0005b00320001407800814c780004
:102f600082814400f1f99f00e20f510055003600c4
:102f700091449800a1449800e1f99f00d1f99f0085
:102f8000e60f51004f003600b1449800c1f99f0090
:102f9000e80f51004b0036000905ea0063056500a3
:102fa0000a8444000a055100c1ff2f000105650095
:102fb0000080fb008000eb001210200013102000a6
:102fc00047070700008cbe000a01440060b99f005b
:102fd00071b99f00e80f55003a00360020049800b0
:102fe00031049800400498005104980020b99f00d3
:102ff00031b99f0040b99f0051b99f00f80f5500ab
:10300000300036006004980071049800000c9800ad
:10301000110c9800200c9800310c9800400c98007e
:10302000510c980020b19f0031b19f0040b19f002a
:1030300051b19f0060b19f0071b19f0000b99f0026
:1030400011b99f006401640078014100020444004a
:10305000020555006011b8000203be000002be0068
:103060000403be006022b80000007200818072007c
:10307000020173008381730010003700009cbe00c2
:103080000294be0040049800510498006204980025
:1030900073049800000c9800110c9800220c980002
:1030a000330c9800400c9800510c9800620c98006a
:1030b000730c98000a02b1000802b000ff0f55001f
:1030c000eeff3e00090078004f05be004f04be0031
:1030d000000006000200fa0081017800e0ff9f0076
:1030e000930090000188a30005003200d3009000f7
:1030f000805878000080fb00d10198000a0037005a
:10310000120020008f80e9000300780048060700c5
:10311000800078000080eb000100e0000200320037
:10312000eff897000180fb000080fa000000060025
:10313000ae043700889fbe008a9fbe0044109800ee
:10314000551098006610980077109800f0089000cd
:103150002004900001045400cfc4de00614db9008a
:1031600008189800191898002a1898003b18980019
:10317000e00f5200e08f5a00e00f5b00e08f5b0031
:103180000c0032000014900001045400cfc4de0093
:10319000614db9000440e10005c8e10006d0e1003e
:1031a00007d8e10003003400048240003410980086
:1031b0000200370080109000311098004f05be00cb
:1031c0004f04be00000006002800fa00889fbe00e1
:1031d0008a1f780000047800f8089000280090000a
:1031e00000805000081a9000981a9000281b900048
:1031f000b81b9000cf80de000402400085824800aa
:10320000068348008783480048109000d81090003b
:1032100068119000f8119000e00f5000e08f580006
:10322000e00f5900e08f5900050032000020e10056
:1032300001a8e10002b0e10003b8e1000d003d008b
:1032400008007800d4b79f00e5b79f00f6b79f004d
:1032500087bf9f00e8010700800478005fb29700f5
:10326000efb297007fb397008fbb97000900e00093
:1032700016003d0078089000a80090008080500063
:103280004f89de00048240008502490006034900a0
:1032900087034900041c9800151c9800261c980000
:1032a000371c980030149800f0ff2f00f1ff2f001a
:1032b0000001be0040149800511498006214980058
:1032c000731498008084eb005200370061004200c4
:1032d000e0804a0060014b00e0814b0090bf9f00fe
:1032e000a1bf9f00b2bf9f00c3bf9f0048129000c4
:1032f000d812900068139000f813900094b79f00c4
:10330000a5b79f00b6b79f00c7b79f00e00f520058
:10331000e08f5a00e00f5b00e08f5b002800320076
:10332000780d9000081190000a0151006112b90057
:10333000612bb900d4af9f00e5af9f00f6af9f00af
:1033400087b79f001fb09700afb097003fb19700bd
:10335000cfb197001fba9700afba97003fbb970055
:10336000cfbb97000400500085805800060159002b
:103370008781590090af9f00a1af9f00b2af9f001f
:10338000c3af9f005faa9700efaa97007fab97009b
:103390008fb397000020e10001a8e10002b0e10036
:1033a00003b8e100060034009fb297001fbb9700ee
:1033b0000681520082004500311498000200370057
:1033c000881390003714980028019000f8089000a6
:1033d000810151001fba9700afba97003fbb970019
:1033e000cfbb97004f98de00048241008502480061
:1033f0000603480087034800041c9800151c980029
:10340000261c9800371c9800828f500001003e0057
:10341000f9f89f00090078004f0578004f04be00be
:103420000080fa00000006000101780080017800a9
:10343000008268000408a300050032001300370072
:1034400032407800805978000004e0001400320017
:10345000030278000208a300f9ff3a000300780095
:10346000010037000318780082007800b20178006c
:10347000f5ef2f00838242000382ea00048262009b
:103480000508280005026200f6ff320000027800fd
:1034900031417800025878000204e000fbff3a0056
:1034a00004007800000006004400fa00889fbe0077
:1034b0008a1f78000004be000205780094bf9f00b8
:1034c000a5bf9f00b6bf9f00c7bf9f000000eb00d5
:1034d000c09f9f00a8af9f00d89f9f000080eb0077
:1034e000b0af9f006022b8006033b80060fb2f00cf
:1034f0000f0040000fff07001fba9700afba9700f8
:103500003fbb9700cfbb9700120020008a007800d5
:1035100060fb2f000f004000560107000900e0008b
:10352000060032003fb29700afaa97000482420023
:10353000df9a970005025200840c44004f05780082
:103540004f04be000080fa0000000600f4ff2f00c8
:10355000f5ff2f000403be00d3ff37006022b80040
:103560000600200007002800cfff3700f4ff2f00df
:10357000f5ff2f006033b800cbff370004002000b8
:10358000050028006033b800c7ff3700f3ff37009d
:10359000eeff370002002f00f3ff2f00820f5000d4
:1035a000838f5800040036000000ea002052880093
:1035b0000080eb008080eb0000000600f1fb2f0094
:1035c00080804000f98f500001003e000050a000b4
:1035d00000000600f9ff3700f1f92f00808040005d
:1035e000f98f500001003e00f005b2000000060017
:1035f000f9ff37000000060088f40700fdff070010
:10360000fcff37000200fa00881f780000047800f1
:10361000e2bf9f00648157000800780019fd070091
:10362000980090000148a300010032000080eb00e8
:103630004f0478000080fa0000000600f28747007f
:103640008e1f780002027800030178000000e0007d
:10365000020032000007780001003700728757002f
:103660008002eb000100e000010032008102e9006d
:1036700070805700060009000018eb000080eb0086
:1036800080bf9f002310200093bf9f00aebf9f000c
:10369000b1bf9f00c5bf9f000100e00003003d00d7
:1036a000b10420002152880006003700004feb00d3
:1036b000eebf9f00debf9f0084007800708057003f
:1036c0003c0307004f0778002f01b10000000600ff
:1036d000881f78000004780000082000808f5000c8
:1036e0001700350010082000808f50000b003400b8
:1036f00030082000808f500011003a0092007800be
:1037000068805000000978003002be002003be002f
:10371000049cbe000694be000700370092027800a9
:1037200064805200000978001000be000d050700fb
:10373000009cbe000294be00100020000100370073
:103740000000eb004f04780000000600881f78009e
:1037500013082000838f50000f0032003308200030
:10376000838f50000400320003082000838f500034
:1037700012003a00080037009280e9000109780041
:10378000910078003002be002003be008498be0085
:103790008690be00070037009280e900010978009a
:1037a000110478005001be004000be002105070052
:1037b000008cbe0010002000010037000000eb006c
:1037c0004f0478000000060084082000848f500019
:1037d0001d0032000d003c0014082000848f5000b2
:1037e0001e00320002003c000408200004003700e4
:1037f00024082000848f50001e003200440820005e
:10380000848f500028003a0022003700040a20006c
:10381000848f50001f00320004003c000409200087
:10382000848f500020003a0012003700020c200064
:10383000828f500017003200020f2000828f50004c
:1038400019003a00130037009380e90081097800dd
:103850009100780090487800120037009380e900ca
:103860008109780091007800b0187800a0107800e5
:103870000c0037009380e9008109780091007800fe
:103880003002be002003be008498be008690be00b9
:10389000040037009380e9008109780091007800e6
:1038a000900878001000050000000500889fbe0009
:1038b0008a9fbe008c9fbe0000047800020578003d
:1038c00021069000c1069000b10590009a0478008e
:1038d0000800780067fa0700090d40000c00e000be
:1038e00001003a000d06e9008004eb0028003700d3
:1038f000f808900038109000808f500003003100cd
:103900003180fb00710c9800070037000800780038
:103910002dfe0700e10f400003003a000900e0001f
:1039200020003c00220037000900e0000a003a00b5
:10393000b1022000810f500003003200d1022000ac
:10394000810f500004003a00804d78001a0de80005
:10395000190020000e00370001fd2f00808040007c
:10396000e98f500007003600381090000000e0009a
:103970000c003200780890000000e900700c9800fc
:103980000800370080f57c008904e8001a0de80083
:103990008c8f540003003d000d00e900808f54001f
:1039a000d3ff35000040eb0080f57c000000eb0009
:1039b0004f06be004f05be004f04be0000000600cb
:1039c000c06090000141e9008140710041609800b1
:1039d00010019000e4006100040032000240a000e9
:1039e000120098000080eb00000006000110980013
:1039f00071089800000005000200fa00889fbe00d0
:103a00000004780008007800560307008084eb006b
:103a10000000e00009003a00981190001200200018
:103a2000e68057000800780003000100e10f500015
:103a300002003a002ff897008084fb00090078000c
:103a40004f04be000080fa000000060080007800ed
:103a50001000200002022000828f5000040032007b
:103a6000e9805000e48f5000010036000000eb00b8
:103a7000000006006f02b000889fbe008a9fbe0053
:103a80008c9fbe008e1f780000067800010778002a
:103a900082047800d4af9f00e5af9f00f6af9f008f
:103aa00087b79f0040022000800f57007d003e0036
:103ab000e10f57007b0032007c089000bc109000a2
:103ac000810f500003003100b086fb00700e98009b
:103ad000030037000c007800bbfd0700800678006b
:103ae0000d007800d9ff07000000e000f2ff3a0067
:103af000b0022000808f5600050032008002eb00eb
:103b000085af9f00d0022000808f560010003a0041
:103b1000dd82b2000df0a7008d06ea008d06e900f7
:103b2000cfeede008daf9f007c089000bc109000af
:103b3000810f500003003100b086fb00700e98002a
:103b4000030037000c0078009ffd07008006780016
:103b50000e00e00002003200f00f570042003a0071
:103b600000032000808f56003c003a007c08900043
:103b7000bc109000810f500003003100b086fb00a4
:103b8000700e9800030037000c0078008efd0700cf
:103b9000800678008d0078000150a000800720008a
:103ba000808f50002a003a007c089000bc109000e2
:103bb000810f500003003100b086fb00700e9800aa
:103bc000030037000c0078007ffd070080067800b6
:103bd000808120006d4078000e012000ef4f5000e2
:103be0008d0036003c1090000000e0000300320021
:103bf000fc0890008100e900710e98000900e000c7
:103c00000c0032006022b8006033b800d4af9f00cf
:103c1000e5af9f00f6af9f0087b79f000000e00070
:103c2000a10132007c0890000000e900700e9800ad
:103c30009d0137006022b8006033b8000c007800a6
:103c40003cfd07006000b8006011b8009201370029
:103c50000e00e0009e013200170037000e00e00069
:103c600001003a00ae002000808120006d40780005
:103c70000080fb008e0f50000f0039003c109000b8
:103c80000000e000030032007c0890000000e90022
:103c9000700e98006022b8006033b8000c00780005
:103ca00024fd070060012000205288006022b80037
:103cb0006033b80071013700ea0f570056003a0030
:103cc0000004eb000d0078000d0037006a44b900d5
:103cd0000800400008fd2f0000044400fc0890008c
:103ce0003c109000808f5000030031003180fb00b9
:103cf000710e9800020037000c00780032fd0700ba
:103d000001fd2f0080804000e98f500003003e003d
:103d100081992100810f5400ecff36008006780065
:103d20008004eb006055b800120037001faa97000e
:103d3000afaa97003fab9700cfab970000044200bb
:103d400081844a0002054b0083854b007c0890006b
:103d5000bc109000810f500003003100b086fb00c2
:103d6000700e9800030037000c00780016fd070065
:103d70008006780005fd2f008582460095af9f00e4
:103d8000e98f520009013e0090992900919929007c
:103d900092992900939921000040e10001c8e100b7
:103da00002d0e10003d8e100db003e00a4002000c7
:103db000050020006033b8000800be000a01be0004
:103dc000cf0407001faa97008002eb006033b80001
:103dd00094af9f00a5af9f00b6af9f00c7af9f00f5
:103de0000482ea008582ea000683ea008783ea000b
:103df000d4b79f00e5b79f00f6b79f0087bf9f002d
:103e00000400e1000588e1000690e1000798e10068
:103e1000c6ff3600c00037000e00e9000e0060004b
:103e2000030032000004eb000d007800650037004d
:103e30007770b9004500de0067006000e180200077
:103e4000e14078008100fb000004eb000d007800e9
:103e5000810478000b0037000944dd000104740080
:103e6000fc0890003c109000808f5000030031004f
:103e70003180fb00710e9800020037000c007800c2
:103e8000d1fc070081812000e0c078008180fb0028
:103e90008e8f500003003100f27f2000820f54000b
:103ea000edff360080067800890078008004eb0082
:103eb0006055b800f4ff2f00f5ff2f000403be008b
:103ec000010078000000e900050033008703d100fd
:103ed0000683d3008582d3000482d300f9ff370024
:103ee0000d00780081067800200037000d01780071
:103ef0000201e900050033000804d0008984d200e3
:103f00000a85d2008b85d200f9ff37000180fb00c3
:103f10008000eb006011b800080470008984700014
:103f20000a0571008b857100fc0890003c10900020
:103f3000808f5000030031003180fb00710e98002b
:103f40000a0037000c00780094b79f00a5b79f00c7
:103f5000b6b79f00c7b79f009bfc0700cfb3970081
:103f60003fb39700afb297001fb297008181200046
:103f7000e0c078000181fb008e0f5100600031002d
:103f80000440e10005c8e10006d0e10007d8e100e7
:103f9000d6ff36005a0037000ec4b900088440002e
:103fa000fc0890003c109000808f5000030031000e
:103fb0003180fb00710e9800020037000c00780081
:103fc00081fc070081812000e0c078008180fb0037
:103fd0008e8f500003003100b2712000820f540018
:103fe000edff3600800678008004eb006055b800d5
:103ff00098af9f00a9af9f00baaf9f00cbaf9f00c3
:10400000120037000002440081824c0002034d0080
:1040100083834d0094af9f00a5af9f00b6af9f0074
:10402000c7af9f007c089000bc109000810f50002b
:1040300003003100b086fb00700e980003003700cb
:104040000c00780060fc070080067800808120006a
:104050006d407800e0cf9f00804278000580fb0033
:104060008e0f5000280031006174b8006055b80010
:104070000802be000a03be00f0ff2f00f1ff2f0070
:104080000001be00b50307001faa9700afaa970062
:104090003fab9700cfab97000020e10001a8e10003
:1040a00002b0e10003b8e10017003e000802be00c4
:1040b0000a03be001fa89700afa897003fa997006a
:1040c000cfa997000e040700efca97000584fb00f4
:1040d0008004eb006055b8000882ea008982ea009b
:1040e0000a83ea008b83ea000400e1000588e1000e
:1040f0000690e1000798e100c2ff36000200370099
:1041000080067800040037001fac9700afac970022
:104110003fad9700cfad9700808120006d407800c3
:104120000080fb008e0f5000200031000d00780051
:1041300009003700fc0890003c109000808f500070
:10414000030031003180fb00710e9800020037003f
:104150000c0078001cfc07008181200060c0780002
:104160000080fb008e0f5000f2ff3900200220007b
:10417000205288005fab97000608a30007003200ba
:104180005fac9700efac97007fad97008fb59700bd
:104190008003eb0087af9f00040037005fac9700ff
:1041a000efac97007fad97008fb597003c10900063
:1041b0000000e000030032007c0890000000e900ed
:1041c000700e98005fa89700efa897007fa997004e
:1041d0008fb197000040e10001c8e10002d0e1008a
:1041e00003d8e1001c0039000008a3000e003a00cb
:1041f0008fa897000100e0000b003a002002200089
:10420000205288005faa9700efaa97007fab970023
:104210008fb3970061025200e0825a0060035b0096
:10422000e0835b00150037005fa89700efa89700b8
:104230007fa997008fb197000040e10001c8e1001d
:1042400002d0e10003d8e100030036002002200084
:1042500020528800140037008fa89700e18f40009b
:104260000b003a006000b8006011b800080250006e
:10427000898258000a0359008b835900d4af9f00ec
:10428000e5af9f00f6af9f0087b79f00060037009d
:104290000800be000a01be00d0af9f00e1af9f0042
:1042a000f2af9f0083b79f005fa89700efa8970029
:1042b0007fa997008fb197004f0778004f06be0087
:1042c0004f05be004f04be006f02b10000000600a3
:1042d0008e002000d0fe3700881f78004044200068
:1042e00045010700000478000800e00013003200d8
:1042f000c20320008000eb000800780011fb0700db
:1043000060862000300c9800a0322200400c9800fb
:10431000805c210070049800602422001014980032
:1043200000c0eb00205c9800400420000800400022
:104330002004980000402000300498000800780015
:104340004f04780000000600889fbe008a9fbe00d0
:10435000100290008002eb000418a30003003a0052
:10436000801290007009900082825200d00190006b
:10437000600190000284510008844200cfc4de0036
:10438000614db9008898be008a90be000000eb0025
:104390000468a3000400320010002000828f510046
:1043a00001003e000000eb004f05be004f04be00c0
:1043b000000006000200fa00881f78000004780060
:1043c000e2bf9f006481570008007800a7f507004e
:1043d000980090000148a300010032000080eb002b
:1043e0004f0478000080fa00000006000101780008
:1043f000920090000158a30003003a008200780068
:1044000034fb07000f0037008080fb00a2599000aa
:104410008301fb00838f500007003200d20190001f
:10442000220a9000848f51000300310080597800e7
:1044300053019800040037008000780002007800e3
:10444000810107008000780001007800000006006c
:1044500000000600a09a20000000060000000600f0
:1044600000000500fdff0700305280008000eb00d7
:104470003b010700504b80008000eb003801070033
:10448000305280008000eb00350137000800fa0050
:10449000889fbe008a1f780000047800010578001c
:1044a0008204780038009000a80090009abf9f0016
:1044b0000001780002f0a7000201ea000201ea0010
:1044c0004f11de0002815400a2bf9f00b1bf9f00c8
:1044d000c0bf9f0022002000ee8057001800780027
:1044e000080107000000e00006003c00f800600042
:1044f0000130a20018019000828070001104980021
:10450000110037002fb99700820f50000e003600bf
:10451000a8009000710c980002005000008040003c
:1045200000149800380090000000e00007003200fe
:104530000905450001007800b040780071fd9f003a
:10454000700c9800010037008004780009007800a2
:104550004f0578004f04be000080fa0000000600fe
:10456000881f780000047800180078003ffa0700e0
:104570000203be000002be00f0ff2f00f1ff2f007b
:104580000001be00e00f5200e08f5a00e00f5b0018
:10459000e08f5b0005003500180090000030a1009e
:1045a000100498006000b8006011b8004f04780053
:1045b000000006000800fa00889fbe008a1f7800ed
:1045c0000004be00180090000058a3001b00320039
:1045d000d800900068009000808f500013003600d3
:1045e000b80990000001eb00820078000800780014
:1045f00094bf9f00a5bf9f00b6bf9f00c7bf9f008d
:104600000300010058059000f0ff2f00f1ff2f007c
:104610000001be001fba9700afba97003fbb9700da
:10462000cfbb97000a00e000060032000000eb005c
:10463000200c980060049800500498000800be0008
:10464000c7ff07004f0578004f04be000080fa0046
:10465000000006000800fa00889fbe008a1f78004c
:104660000004be00e18f540008003a00881090005a
:104670007808900000805000cf80de0000025200d9
:1046800081825a0001035b0081835b001800900067
:104690000058a3001b003200d80090006800900072
:1046a000808f500013003600b80990000001eb0025
:1046b000820078000800780094bf9f00a5bf9f008b
:1046c000b6bf9f00c7bf9f000300010058059000c0
:1046d000f0ff2f00f1ff2f000001be001fba97006e
:1046e000afba97003fbb9700cfbb97000a00e0002e
:1046f000150032000000eb00200c980060049800c8
:10470000500498000800be0095ff07000203be0099
:104710000002be00f0ff2f00f1ff2f000001be00dd
:10472000e00f5200e08f5a00e00f5b00e08f5b006b
:10473000050035000000eb0000149800700c980094
:104740006000b8006011b8004f0578004f04be004b
:104750000080fa000000060000000600609e2000b5
:1047600000000600881f7800000478004860900070
:104770008040e90000c0700040649800d8009000bc
:1047800068009000808f500005003600b809900046
:104790000001eb00820078000800780003000100af
:1047a0000000eb00200c9800600498005004980072
:1047b000980090000118a300030032000140a000ff
:1047c000110498000800370028019000380090007c
:1047d0000000410000149800700c98000000eb00ed
:1047e0000138a300010032000080eb004f04780084
:1047f000000006001bff37000200fa00889fbe0081
:104800000000e00001003a00100020000004e80071
:104810000800a100105280000000e8000000a10084
:1048200010528800000020000000e0000f0032005d
:10483000e10f540006003600e20f440005003a0084
:10484000c0002000205288000000eb002a00370042
:104850002800200008007800e9ed0700290020006a
:104860000000e00024003a00010037008004eb0063
:10487000105280000152800000805000800f5400d0
:104880001300360008804400d0bf9f0066805700a8
:10489000a4000700800078000000eb000100e000a9
:1048a000150032000100e8000000a1000152800064
:1048b000810f50000100320010528800dfb89700cd
:1048c000010040000000e8000000a1000052880044
:1048d000115280000900e00003003200010078005e
:1048e00008187800010037000100780008844400af
:1048f00088804000115288004f04be000080fa00fa
:1049000000000600889fbe008a9fbe008c1f7800b2
:104910000006780082057800010478008004eb002e
:10492000090578000700370018019000980078000a
:104930000c007800d8ee0700808444000a05e800e7
:10494000640444008b0f5500f7ff35000900780020
:104950004f0678004f05be004f04be000000060061
:104960008001eb000000e0000500320070019000c3
:104970000200e00002003200020001008001780025
:1049800003007800000006006000b8006011b80065
:1049900000000600881f7800c001200096ff070075
:1049a000000478000800e0000a003200c201200084
:1049b0008000eb000800780062f9070060862000a4
:1049c000300c9800a02d2200400c980000c0eb0095
:1049d000205c9800080078004f0478000000060072
:1049e0003dfe37004009900002400100d0019000d8
:1049f0006001900002825100cfa2de00612bb9005d
:104a00008498be008690be00900090000000eb00ed
:104a10000168a3000400320010002000828f5100c2
:104a200001003e000000eb000000060046fe3700db
:104a3000b00990000300e0000100320003400100d3
:104a400010007800e1ee37000200fa00881f7800bd
:104a500000047800c1ff9f00280890000000e000db
:104a600006003a0008007800200007008000780067
:104a70000080eb000100e00018003a00d800900030
:104a800028089000808f5000090031004ff99700ee
:104a90000280fb00a85990008301fb00830f5000a7
:104aa0000300320082587800510498000b00370050
:104ab000b809900012002000e48057000800780038
:104ac00003000100800078000080eb00e18f5000bf
:104ad00002003a00cff897000180fb004f047800f5
:104ae0000080fa000000060000000500881f780022
:104af0000004780008007800b1fb07000000e00027
:104b000006003a00a8009000610498005104980043
:104b10003801900082804000210c98004f047800fa
:104b200000000600900078000000eb000100e000ab
:104b30000500350001007800e6ee0700e10f4000b7
:104b400001003a000000eb000000060000c0da009f
:104b50000000060000c0da000000060000c0da0015
:104b600000000600810378001d0007000001be0060
:104b70006000b8000478a30013003a006220e1004e
:104b800015003e000d0039008301d1000281d300e1
:104b90008180d3008301d1000281d3008180d300c2
:104ba0008301d1000281d3008180d3000538b00099
:104bb000c42add00f300b2008381720007f0a70071
:104bc00003f0a0000000060083ff27000200200081
:104bd0006110b900f9ff370003ff2700f7ff370026
:104be000c70ade00f107b200f50fb200080032007c
:104bf000e1cf4200020032000170a0002400050055
:104c0000810f700001003200040805004400050017
:104c1000810f700002003a00140005008502e900cf
:104c20000000400081c04800fcff3b000170a00074
:104c3000240005001400fa00889fbe008a9fbe0071
:104c40008c9fbe000005be000206be006800470043
:104c50000c90be000a90be00520107006400e10003
:104c60001a00320016003e006100e1001a00320016
:104c70006e049000fe0490000e0b90009e0b9000be
:104c80006011b8009e0590000b38b100d5012000de
:104c900082817100610164008703d1000683d30023
:104ca0008984d3000884d3008502e900f8ff3a0024
:104cb0007c0107000df0a70001f0a000740137008f
:104cc00001fc270000002000faff370001f8270050
:104cd00000002000f7ff37006000b800f5ff370044
:104ce000020ab900001bb9000200b80081004200ae
:104cf0008100430000000600889fbe008a9fbe001e
:104d000030044200b0844a0030054b0090854b00cf
:104d10006000b1000898be000a90be000440e100a7
:104d200005c8e10006d0e10007d8e100020031002b
:104d3000680040001008e8004f05be004f04be00a8
:104d400000000600889fbe008a9fbe003004be009f
:104d50002005be000418540005985c0006185d008c
:104d600007985d00110020000440e10005c8e10043
:104d700006d0e10007d8e100010039008000eb0017
:104d8000108810004f05be004f04be000000060052
:104d90001200fa00889fbe008a9fbe008c9fbe0052
:104da000e0b79f00f1b79f0082bf9f0093bf9f00b5
:104db0000605be000404be000000eb00d0b79f0053
:104dc000c0b79f00b0b79f00a0b79f0090b79f00eb
:104dd000000678005fb19700cfb0970082014100d4
:104de0003fb097000200e00004003d0037000700dc
:104df0007e805700c0ff0700030037003300070024
:104e00007e805700cfff0700dfb697000d00e0005f
:104e10000c0035006fb29700ffb297000fbb9700f0
:104e20009fbb970010002000010020006011b80017
:104e30000002720081827200020373008383730098
:104e40001b0007000c06e80001042000810f56003b
:104e5000e0ff3a000d00e00004003d000802be0043
:104e60000a03be007e805700a3ff07005fa89700db
:104e70000000e00005003a001fb29700afb29700b3
:104e80003fb39700cfb39700090007006fb09700ba
:104e9000ffb097000fb997009fb997004f06be006b
:104ea0004f05be004f04be000080fa00000006005f
:104eb0000100070000000600a4b79f00b5b79f00df
:104ec000c6b79f00d7b79f00000006004f09de005d
:104ed00082817100b3b79f004f01de0081804000e6
:104ee00082807000a1b79f008fb097004f09de004d
:104ef000000040000200700090b79f007fa897005c
:104f00004f01de00818040008280700081b79f00e9
:104f10000d0007004f3ade00000040000400700062
:104f2000f0af9f00080007000402420085824a009b
:104f300006034b0087834b00dfff07000802be001b
:104f40000a03be00000006002fb29700bfb2970010
:104f50004fb39700dfb3970000000600881f78006a
:104f600018002000881f780089ff07008f87e9005c
:104f70004f04780000000600801feb0084ff07004c
:104f80008f87e90000000600889fbe008a9fbe0050
:104f9000e00f5000e08f5800e00f5900e08f5900fb
:104fa0000c003d006044b8006055b800000054009b
:104fb00081805c0002015d0083815d00180020009b
:104fc0001500070008003d00180007000004eb0072
:104fd000050037000004eb000f00070002003d0051
:104fe0001200070018002000dcff07000800e000a6
:104ff000060032006022b8006033b80000005200a2
:1050000081805a0002015b0083815b004f05be0076
:105010004f04be0000000600e00f5200e08f5a006f
:10502000e00f5b00e08f5b00000006006044b8000a
:105030006055b8000402540085825c0006035d00e0
:1050400087835d0000000600889fbe008a9fbe0027
:105050008c1f7800e00f5000e08f5800e00f5900df
:10506000e08f59000d003d006044b8006055b80065
:105070000000540081805c0002015d0083815d00be
:105080001c0020000820e10009a8e1000ab0e100ae
:105090000bb8e1000d003d00080037000006eb00f2
:1050a000e00f5200e08f5a00e00f5b00e08f5b00e2
:1050b00006003d006044b8006055b800040254008a
:1050c00085825c0006035d0087835d00aaff070000
:1050d0000c00e000060032006022b8006033b80027
:1050e0000000520081805a0002015b0083815b0056
:1050f0004f0678004f05be004f04be0000000600ba
:10510000889fbe008a9fbe008c1f78000006eb00bf
:10511000e00f5000e08f5800e00f5900e08f590079
:1051200007003d006044b8006055b800000054001e
:1051300081805c0002015d0083815d001c00200015
:10514000e00f5200e08f5a00e00f5b00e08f5b0041
:1051500007003d006044b8006055b80004025400e8
:1051600085825c0006035d0087835d000c00a20061
:10517000720007000c00e000060032006022b80058
:105180006033b8000000520081805a0002015b00c9
:1051900083815b004f0678004f05be004f04be00c0
:1051a00000000600800078005002be005003be00e0
:1051b0004439de00f700b200f37f200003016100f4
:1051c000090032000218e10016003a008501720061
:1051d00083017300838173000008200015003a00ea
:1051e0004000200013003700850172008301730026
:1051f0008381730005003a0004a8be0006a8be0023
:10520000100020000b0037000201e90004024200f8
:1052100085824a0006034b0087834b000748a300a2
:10522000f9ff32000740a00004a8be0006a8be0097
:1052300020002000800098009200980000000600e6
:10524000680447000294be000094be00fc044700be
:105250008694be008494be0009007800d1ff070048
:1052600008007800cfff070099007800814f700098
:105270000b003b000800be00520007004f00b100c9
:1052800003003700f3ff2700f2ff2f006110b90081
:105290004f06be004f05be004f04be000080fa005e
:1052a0000000060081002000618055000b003d00d9
:1052b0000b00200061fe2f000100e1001d00340002
:1052c00082817100610164008904d1000884d300e7
:1052d0000000e800faff3a0071002000610064005d
:1052e0000300700002006000090032006104440005
:1052f000e0844c000988a500050032008b05e80019
:105300006808e10002003a008904d1000884d30053
:10531000f20f20000258e10005003d00c75ddd00ee
:10532000f907b200898075000800780000000600c7
:105330000bf827008b00780000000500889fbe0056
:105340008a9fbe008c9fbe000404b8000506b8000a
:105350008904460060854e000606b8000a0546002e
:10536000e0854e000706b8008b054600040eb80025
:10537000890446000a854e00e0854d00050eb80000
:105380000a0546008b854e00060eb8008b054600c8
:105390000416b8000a0546008b854e000516b800b5
:1053a0008b054600041eb8008b0546000800be00b1
:1053b0000a01be004f06be004f05be004f04be00ee
:1053c00000000600e48240001078a30007003200cd
:1053d000640240001178a3003400be001401be0036
:1053e000040032000330a700000006003500be00b4
:0c53f0001501be000330a0000000060004
:020000040000fa
:1053fc00224c000075780000223a000020000000ca
:10540c0022480000616c00006c2200003a20000071
:10541c00007b0000002c0000200000005b0000005e
:10542c0025640000002c0000005d0000007d0000e1
:10543c00000d00000a0000007b220000702200001a
:10544c003a250000647d00000050000065720000e9
:10545c00696f0000646f000020630000616d000044
:10546c0062690000616400006f2000007061000040
:10547c007261000020250000640a0000007b00001f
:10548c00226e0000223a0000256400007d0000001e
:10549c004e7500006d650000726f00002064000006
:1054ac0065200000616d00007565000073740000dc
:1054bc007261000073200000636100006d620000e7
:1054cc0069610000646f00002070000061720000d0
:1054dc0061200000256400000a0000004f700000ed
:1054ec00636100006f200000696e0000636f0000b4
:1054fc007272000065740000612c000020740000c2
:10550c00656e000074650000206f0000757400006b
:10551c007261000020760000657a00002e0a0000ff
:10552c00004900006e760000616c000069640000a8
:10553c00206600006f7200006d610000743a00007c
:10554c00206d000069730000736900006e67000035
:10555c00202700007b270000004900006e76000029
:10556c00616c00006964000020760000616c000032
:10557c00756500003a200000657800007065000039
:10558c00637400006564000020300000206f000090
:10559c007220000031000000504900004320000040
:1055ac00537400006172000074650000642e0000ea
:0c55bc002e2e00000d0a00000000000070
:020000040000fa
:1055c8000200fa00000f7800000220009e00780018
:1055d800808f5000040032001e00780069005000df
:1055e800e40f500002003e001000200001003700c8
:1055f8000000eb000080fa00000006000000fa003e
:1056080001088000f00b2000008160006004200089
:105618007105200003102000804978008149780036
:1056280082497800213f8000f00f280080806000c8
:105638000030200001007000203f8800a13d80005c
